:04000000803115280E
:100008007E14803100308600003087002000911C6B
:100018000E280F281328911001302100BC077E10EC
:1000280009008031172810308400A7308500DB30A4
:100038008600003087001030A631CA268031023091
:1000480084009130850048308600013087002030D8
:10005800A631CA268031533084000030850015301F
:10006800A631C4268031A0308400003085003B30A2
:10007800A631C42680312030840001308500283024
:10008800A631C42680317E1020009331A02B033086
:10009800210035060319512852287E2B05303506D4
:1000A800031D5728582859287E2B320803195D2824
:1000B8005E2861280130B2027E2B91317D2180318A
:1000C8008831002080312100330803196C286D28FD
:1000D8006F2B3E08803A2000B90080303902031D9A
:1000E8007828053021003D0203187B287C286F2BD7
:1000F80004302100B5007E2B3E08803A2000B9006C
:1001080080303902031D8B28053021003D02031C75
:100118008E288F287E2B0A302100B3000230B500CC
:10012800E730AA000330AB00E730A8000330A9008D
:10013800E730A6000330A7002000D801D70121002E
:10014800B10102302100B2007E2B4208803A200023
:10015800B90021004008803A20003902031DB72861
:1001680021003F084102031CBA28BB28BF280530DC
:100178002100B5007E2B21004008803A2000B900FC
:1001880021002908803A20003902031DCE282100C9
:1001980028083F020318D128D228D7282100400870
:1001A800A9003F08A80021004008803A2000B900B3
:1001B80021002B08803A20003902031DE62821007F
:1001C8002A083F020318E928EA28F92821004008EC
:1001D800AB003F08AA0020005708D6005808D500F1
:1001E80021005808B0000130B10001302000D707C5
:1001F8000B3057020318012902292A291430F0006C
:100208000030F10021002908F3002808F20091319C
:10021800222180312100280870072000B900210020
:100228002908713D2000BA003A08803ABB00210035
:100238004008803A20003B02031D262921003F0880
:1002480020003902031829292A298C292000D701DE
:100258000130D8071430F0000030F10021002708E1
:10026800F3002608F200913122218031210026086E
:1002780070072000B90021002708713D2000BA004E
:100288003A08803ABB0021002908803A20003B0246
:10029800031D522921002808200039020318552976
:1002A80056296E2921005803031D5B295C295F2903
:1002B8001430B3007E2B0130D8002000D701D801BC
:1002C800E7302100A8000330A900E730A60003307A
:1002D800A700732921002908A7002808A600E730ED
:1002E800A8000330A9000B3020005802031C7D2908
:1002F8007E298C29D801E7302100A8000330A90005
:100308005803031D882989298A295C290130D800C6
:1003180020005708333E8400A8300318013E8500AA
:1003280000082100D90020005808283E8400A83081
:100338000318013E850000082100DA009431992451
:100348008031A5283108031DAA29AB29B229D80173
:10035800D901DA01943199248031BB283008D800BA
:1003680020005608333E8400A8300318013E85005B
:1003780000082100D90020005508283E8400A83034
:100388000318013E850000082100DA002000560805
:10039800333E8400A8300318013E85000008210080
:1003A800A40020005508283E8400A8300318013E08
:1003B800850000082100A10020005608031DE5293A
:1003C800E629E929BC01BD010B2A0230F000003002
:1003D800F1005608333E8400A8300318013E85001A
:1003E8000008B9005608323E8400A8300318013EC0
:1003F800850000083902F200F301031CF303913170
:100408002221803171082000BD007008BC003C0822
:100418002100AF000A3020005602031C142A152AB6
:10042800182ABE01BF013A2A0230F0000030F1005C
:100438005608343E8400A8300318013E85000008A1
:10044800B9005608333E8400A8300318013E8500E1
:1004580000083902F200F301031CF3039131222151
:10046800803171082000BF007008BE003E082100DE
:10047800AE0020005508031D422A432A462AC0011F
:10048800C101682A0230F0000030F1005508283E0A
:100498008400A8300318013E85000008B9005508FB
:1004A800273E8400A8300318013E85000008390261
:1004B800F200F301031CF30391312221803171080A
:1004C8002000C1007008C00040082100AD000A30BB
:1004D80020005502031C712A722A752AC201C30121
:1004E800972A0230F0000030F1005508293E8400B8
:1004F800A8300318013E85000008B9005508283EB9
:100508008400A8300318013E850000083902F20073
:10051800F301031CF303913122218031710820007B
:10052800C3007008C20042082100AC002F08240252
:10053800A30024082E07A5002D082102A0002108E9
:100548002C07A200E730AA000330AB0001302000DE
:10055800D7000130D80021002408D9002108DA008A
:1005680094319924803102302100B2001E30B3004A
:100578007E2B4208803A2000B90021004008803ACA
:1005880020003902031DCB2A21003F084102031C29
:10059800CE2ACF2AD02ABB2821004008803A200042
:1005A800B90021002B08803A20003902031DDF2AF8
:1005B80021002A083F020318E22AE32AED2A210033
:1005C8004008AB003F08AA0020005708D60058088A
:1005D800D50020005703031DF22AF32A072B210018
:1005E800240823060319F92AFA2AFD2A2000D7012C
:1005F800422B250824060319022B032B072B023054
:100608002000D700422B20005708031D0C2B0D2B70
:10061800152B2100250824060319132B142B152B41
:10062800032B01302000D7005803031D1C2B1D2B62
:10063800312B2100210820060319232B242B272BDB
:100648002000D801422B2208210603192C2B2D2B20
:10065800312B02302000D800422B20005808031DFF
:10066800362B372B3F2B21002208210603193D2B5F
:100678003E2B3F2B2D2B01302000D8005703031DA4
:10068800462B472B5C2B5803031D4B2B4C2B5C2B09
:100698005608A33E8600870101082100D9002000E2
:1006A8005508A03E8600870101082100DA00AE291E
:1006B8005708A33E8600870101082100D9002000C1
:1006C8005808A03E8600870101082100DA00A22907
:1006D8000330B5007E2B21003308003A0319802827
:1006E8000A3A0319A9281E3A0319A6290A3A03192E
:1006F800BD2A6C2B08000034003400340034003468
:10070800003400345F3400340034003407340034DB
:100718000734003414347F3414347F3414342434CC
:100728002A347F342A34123423341334083464349A
:100738006234363449345534223450340034053464
:1007480003340034003400341C342234413400347F
:100758000034413422341C34003408342A341C3424
:100768002A340834083408343E3408340834003451
:100778005034303400340034083408340834083431
:100788000834003430343034003400342034103429
:100798000834043402343E345134493445343E3448
:1007A800003442347F3440340034423461345134AC
:1007B800493446342134413445344B3431341834C7
:1007C800143412347F3410342734453445344534D6
:1007D80039343C344A34493449343034013471347E
:1007E8000934053403343634493449344934363409
:1007F80006344934493429341E3400343634363406
:1008080000340034003456343634003400340034B4
:100818000834143422344134143414341434143461
:10082800143441342234143408340034023401348A
:1008380051340934063432344934793441343E343D
:100848007E341134113411347E347F3449344934C0
:10085800493436343E3441344134413422347F34CF
:100868004134413422341C347F34493449344934C6
:1008780041347F3409340934013401343E3441347D
:100888004134513432347F340834083408347F34E6
:10089800003441347F34413400342034403441340E
:1008A8003F3401347F3408341434223441347F34E3
:1008B80040344034403440347F3402340434023409
:1008C8007F347F340434083410347F343E34413468
:1008D800413441343E347F34093409340934063410
:1008E8003E344134513421345E347F340934193470
:1008F800293446344634493449344934313401348E
:1009080001347F34013401343F34403440344034BE
:100918003F341F342034403420341F347F34203493
:10092800183420347F346334143408341434633472
:10093800033404347834043403346134513449348E
:1009480045344334003400347F3441344134023474
:100958000434083410342034413441347F340034B2
:100968000034043402340134023404344034403452
:100978004034403440340034013402340434003408
:10098800203454345434543478347F344834443420
:1009980044343834383444344434443420343834D7
:1009A8004434443448347F3438345434543454341C
:1009B800183408347E3409340134023408341434C9
:1009C800543454343C347F34083404340434783494
:1009D800003444347D3440340034203440344434CA
:1009E8003D34003400347F34103428344434003427
:1009F80041347F34403400347C34043418340434B3
:100A080078347C3408340434043478343834443446
:100A18004434443438347C341434143414340834AE
:100A280008341434143418347C347C3408340434D2
:100A3800043408344834543454345434203404349A
:100A48003F344434403420343C344034403420343F
:100A58007C341C342034403420341C343C3440343E
:100A6800303440343C34443428341034283444344A
:100A78000C345034503450343C344434643454349A
:100A88004C344434003408343634413400340034AF
:100A980000347F34003400340034413436340834B0
:100AA8000034083408342A341C34083408341C341C
:100AB8002A3408340834FB3020005906031D652DFC
:100AC800662D6C2D5B08013ADB009131D921853107
:100AD800503020005906031D722D732DE92D283042
:100AE800D9025B08031D792D7A2DE52D02305C02B1
:100AF80003187F2D802DE52D5C08C300C401C33584
:100B0800C40D5D30C5000030C600430845078600A7
:100B18004408463D8700403FCD00413FCE004E0887
:100B2800803AC30080304302031D9C2D64304D027F
:100B380003189F2DA02DA62D05302000CD070030CD
:100B4800CE3DAB2D32302000CD070030CE3D5C08C5
:100B5800031DAF2DB02DC12D4E08803AC300803043
:100B68004302031DB92DC9304D02031CBC2DBD2DF8
:100B7800D32D2000CD01CE01D32D4E08803AC300DD
:100B880083304302031DCA2DE9304D02031CCD2DCD
:100B9800CE2DD32D20005E08CE005D08CD002000AC
:100BA8005C355D3E860087010030873D5C3500304E
:100BB800873D4D08C03F4E08C13F9131D92185314D
:100BC800E92D8731F62785311C2F023020005C0281
:100BD8000318EF2DF02D2F2E21005708803A200002
:100BE800C30080304302031DFC2D653021005602EE
:100BF800031CFF2D002E142F200066082100570625
:100C0800031D0A2E2000650821005606031D0D2E1F
:100C18000E2E142F20005C35613E860087010030BF
:100C2800873D5C350030873D21005608C03F570896
:100C3800C13F993146218531F801F80AF230F900AF
:100C4800A930FA00FB0180308D314725853102300B
:100C58002000DC07142F21005708803A2000C30029
:100C680080304302031D3B2E053021005602031835
:100C78003E2E3F2E142F01302000DC025C03031DA2
:100C8800462E472E4E2E9931462185319131D92154
:100C98008531142F5E082100CD0020005D08210059
:100CA800CC00200060082100CF0020005F08210050
:100CB800CE004D08FD004C08FC00883184208531A9
:100CC8007D082000CC007C08CB0021004F08FD00E7
:100CD8004E08FC008831842085317D082000CA0038
:100CE8007C08C9005B3086000030870046315B30E5
:100CF8008400003085000831403F0002A000013127
:100D0800413F003BA100A201A11BA2032208A300AE
:100D18004B084902C3004C084A3BC4004308C500BD
:100D28004408C6000030C61BFF30C700C8000C309E
:100D3800C535C60DC70DC80D890B9C2E4808A700E0
:100D48004708A6004608A5004508A4009531A22535
:100D58008531200021082100D3002000200821002F
:100D6800D20000302000A3000030A2001030A10003
:100D78000030A00021005208F0005308F100890D4E
:100D8800893B8909F200F30020006108F400620839
:100D9800F500890D893B8909F600F7009B312A2364
:100DA800853173082000A7007208A6007108A50005
:100DB8007008A4009531A2258531200020084B0237
:100DC8002100D000200021084C3B2100D100CC306C
:100DD800F3000030F4000230F5006A309831442006
:100DE8008531CE30F3000030F4000230F500683071
:100DF800983144208531D030F3000030F4000230BF
:100E0800F5006630983144208531D230F300003047
:100E1800F4000230F5006430983144208531E52D26
:100E2800210057082000E600210056082000E500B0
:100E3800080000302000B7000030B6000030B500D0
:100E48000030B4000030BB000030BA000030B900F8
:100E58000030B800BD01BC010130BD073D35343E4E
:100E6800860001308700403FAE00413FAF003C356F
:100E7800343E8600013087002E08C03F2F08C13F4E
:100E88002E08B0002F08B1000030B11BFF30B200AF
:100E9800B3003008B4073108B53D3208B63D330811
:100EA800B73D3D35203E860001308700403FAE000B
:100EB800413FAF003C35203E8600013087002E08B8
:100EC800C03F2F08C13F2E08B0002F08B1000030E6
:100ED800B11BFF30B200B3003008B8073108B93D84
:100EE8003208BA3D3308BB3D0130BC0709303C022B
:100EF800031C7F2F802F302F01309A31C622873173
:100F080020003D35343E8600013087007008C03F20
:100F18007108C13F7008AE007108AF000030AF1B08
:100F2800FF30B000B1002E08B4072F08B53D3008D7
:100F3800B63D3108B73D00309A31C62287312000CE
:100F48003D35203E8600013087007008C03F71089B
:100F5800C13F7008AE007108AF000030AF1BFF3012
:100F6800B000B1002E08B8072F08B93D3008BA3DC7
:100F78003108BB3D0030A3000030A2000030A100C2
:100F88000A30A0003708A7003608A6003508A500D3
:100F98003408A4009531A2258731200021082100BA
:100FA800D700200020082100D60000302000A30030
:100FB8000030A2000030A1000A30A0003B08A700C2
:100FC8003A08A6003908A5003808A4009531A225DA
:100FD8008731200021082100D500200020082100A9
:100FE800D40008008A302000D300A930D4009A31F8
:060FF800F8228731080019
:101000002000AE01AF0121005708803AFC0080307B
:101010007C02031D0D2864305602031C1028112881
:101020007B2821005508803AFC005708803A7C0252
:10103000031D1C285608540203181F282028762850
:10104000BD308600003087005731BD30840000304D
:1010500085001931403F00022000A0000131413FCE
:10106000003BA100A201A11BA2032208A300BD30E6
:101070008600003087005731BD3084000030850085
:101080001931403F0007F0000131413F003DF100C0
:10109000F201F11BF2037208F3000030F700003098
:1010A000F6000030F5006430F4009B312A238831CB
:1010B00073082000A7007208A6007108A500700838
:1010C000A4009531A225883120002108AF00200816
:1010D000AE002F08803AFC0083307C02031D72288A
:1010E000E8302E02031C752876287B28E730200084
:1010F000AE000330AF0020002F082100C000200008
:101100002E082100BF0008007C08F0007D08F100D7
:10111000890D893B8909F200F3000030F7000030A7
:10112000F600C330F5005030F4009B312A2388319B
:1011300073082000B9007208B8007108B700700881
:10114000B6000030A3000030A2000030A100023041
:10115000A0003908A7003808A6003708A5003608FF
:10116000A4009531A225883120002308BD00220863
:10117000BC002108BB002008BA000030C1000030CC
:10118000C0000030BF000030BE0012293D08C10081
:101190003C08C0003B08BF003A08BE004108A3005D
:1011A0004008A2003F08A1003E08A0003908A7009F
:1011B0003808A6003708A5003608A4009531A225F6
:1011C0008831200020083E07AE0021083F3DAF00D7
:1011D0002208403DB0002308413DB1003108B50070
:1011E0003008B4002F08B3002E08B2000030A3006E
:1011F0000030A2000030A1000230A0003508A70096
:101200003408A6003308A5003208A4009531A225B1
:10121000883120002308BD002208BC002108BB0043
:101220002008BA0041083D06031D202940083C065D
:10123000031D20293F083B06031D20293E083A06CE
:10124000031D23292429C6283B08FD003A08FC0079
:10125000080002302000C6000330C700B1012100A1
:101260003E082000B30021003D082000B200B40178
:1012700004309E31A52689312000B101B10A210038
:1012800040082000B30021003F082000B200B40154
:1012900004309D3145258931210058080319512911
:1012A0005229572903302000C6000230C700210010
:1012B0004903031D5C295D296A290330F800F830D1
:1012C000F900A830FA00FB01FB0A00308D314725F8
:1012D0008931AA2920004608F800F530F900A93024
:1012E000FA00FB0100308D31472589313D30200067
:1012F000A3000730A4009A313B2289312000460820
:10130000F8003D30F9000030FA00FB0102308D3169
:101310004725893120004708F800F830F900A93046
:10132000FA00FB0100308D31472589313D30200026
:10133000A3000730A4009A316922893120004708B0
:10134000F8003D30F9000030FA00FB0102308D3129
:101350004725893121004503031DAF29B029D42930
:1013600049030319B429B529D429CF302000C4007A
:10137000A930C500C8014808B100480844078400E6
:1013800045080318013E85000008B200B30109308A
:10139000A7312027893101302000C80704304802D6
:1013A000031CD329D429BB2908002000B901B101AD
:1013B0006030FC000030FD0039087C0786000030FA
:1013C0007D3D87000108B2005C0839060319E92950
:1013D000EB290130EC290030B3003908023EA73177
:1013E0002027893101302000B90708303902031C59
:1013F000FA29FB29D72908305C020318002A012AA0
:10140000552A6030FC000030FD005C087C07860037
:1014100000307D3D87000108B700B901112A013075
:10142000B9073908003E8400A0300318013E85004A
:101430000008370603191D2A1E2A242A49303902BA
:10144000031C232A242A0F2AB101B10A3708B2004B
:10145000B301B30A0230A7312027893101302000BF
:10146000B8000130B90748303902031C382A392A3C
:101470003A2AB901B101B10A3908003E8400A0300E
:101480000318013E85000008B200B3013808023E8F
:10149000A7312027893101302000B80708303802F1
:1014A000031C532A542A312A602AF801F80A75309D
:1014B000F900A830FA00FB0100308D314725893151
:1014C0000330F800C030F900A930FA0008302000DD
:1014D0005C0603196C2A6E2A01306F2A0030FB006B
:1014E00000308D31472589310330F800E630F900AE
:1014F000A930FA00093020005C060319802A822AEC
:101500000130832A0030FB0007308D3147258931B7
:10151000080020005B08BC000130BA000230BB00AC
:10152000210058080319952A962A9B2A0230200088
:10153000BA000130BB0020003A08F800F530F9008D
:10154000A930FA00FB0100308D3147258A31333054
:101550002000A3000730A4009A313B228A312000EA
:101560003A08F8003330F9000030FA003A08FF3E3C
:10157000B100FF3003180030B2003C0831063204DD
:101580000319C32AC52A0130C62A0030FB000430E3
:101590008D3147258A3120003B08F800F830F900EA
:1015A000A930FA00FB0100308D3147258A313330F4
:1015B0002000A3000730A4009A3169228A3120005C
:1015C0003B08F8003330F9000030FA003B08FF3EDA
:1015D000B100FF3003180030B2003C08310632047D
:1015E0000319F32AF52A0130F62A0030FB000430F3
:1015F0008D3147258A3121005808031D002B012B0E
:10160000162B0330F800D930F900A930FA00023067
:1016100020003C0603190D2B0F2B0130102B00303E
:10162000FB0000308D3147258A312A2B0330F8002A
:10163000D430F900A930FA00023020003C0603192A
:10164000222B242B0130252B0030FB0000308D3164
:1016500047258A310330F800E630F900A930FA0056
:10166000033020003C060319362B382B0130392B70
:101670000030FB0007308D3147258A310800FB30F0
:1016800020005906031D452B462B522B0130DB074A
:1016900005305B02031C4D2B4E2B4F2BDB0193318E
:1016A00025238B31503020005906031D582B592B10
:1016B000082C2830D9025B08031D5F2B602B6C2B94
:1016C0006003031D642B652B672BE001692B013040
:1016D000E000933125238B3120005B03031D712B28
:1016E000722B8B2B0530DE070030DF3D5F08803A20
:1016F000BD0081303D02031D7F2B2D305E02031C97
:10170000822B832B882B78302000DE000030DF0016
:10171000933125238B31023020005B06031D912B72
:10172000922BAB2B0530DC070030DD3D5D08803AA5
:10173000BD0080303D02031D9F2BC9305C02031C9D
:10174000A22BA32BA82B64302000DC000030DD008E
:10175000933125238B31033020005B06031DB12B11
:10176000B22B012C5D08803ABD005F08803A3D0233
:10177000031DBC2B5E085C02031CBF2BC02BCB2BB4
:1017800020005E08FB3EDC00FF305F3DDD00933152
:1017900025238B31082C200060082100C500200083
:1017A0005F082100C40020005E082100C300200063
:1017B0005D082100C20020005C082100C100C1308A
:1017C000F3000030F4000230F5007030983144200E
:1017D0008B31C330F3000030F4000230F5006E307E
:1017E000983144208B31C530F3000030F400F5010E
:1017F000F50A7330983144208B318731F6278B31CD
:10180000082C04305B06031D062C072C082CFD2B2E
:10181000080001302000DE070A305E06031D112C8F
:10182000122C372CDE0191317D218C318831002042
:101830008C312000B101210040082000B3002100BC
:101840003F082000B200B40100309D3145258C31A5
:101850002000B10121003E082000B30021003D0816
:101860002000B200B40106309E31A5268C31FB3039
:1018700020005906031D3D2C3E2C4A2C0130DB076D
:1018800004305B02031C452C462C472CDB018A31BB
:1018900089228C31503020005906031D502C512CC8
:1018A000C62C2830D90221005808031D582C592C69
:1018B0005F2C20005B0803195E2C5F2C6B2C210031
:1018C00058080319642C652C772C20005B03031D3A
:1018D0006A2C6B2C772C21005908031D702C712C5D
:1018E000742C0130D900772C59357F39D90021006B
:1018F0005808031D7C2C7D2C832C20005B030319CE
:10190000822C832C8F2C210058080319882C892CB9
:101910009B2C20005B08031D8E2C8F2C9B2C210000
:101920005A08031D942C952C982C0130DA009B2C1E
:101930005A357F39DA00023020005B06031DA12CE6
:10194000A22CAF2C21005808031DA72CA82CAB2CCF
:101950000130D800AC2CD801FF302000D900033072
:101960005B06031DB42CB52CC02C5D08F2005C088E
:10197000F100A73158278C318731F6278C31462D5D
:101980008A3189228C31943199248C312000BD0117
:1019900021005808031DCD2CCE2CD42C20005B0830
:1019A0000319D32CD42CE02C210058080319D92C6E
:1019B000DA2C012D20005B03031DDF2CE02C012D10
:1019C00021003603031DE52CE62CF02C59080319E1
:1019D000EA2CEB2CED2C0130D90201302000BD00A7
:1019E00021003703031DF52CF62C012D7F30590201
:1019F0000318FB2CFC2CFE2C0130D90701302000F1
:101A0000BD0021005808031D062D072D0D2D2000B7
:101A10005B0303190C2D0D2D192D210058080319F6
:101A2000122D132D3A2D20005B08031D182D192DA2
:101A30003A2D21003603031D1E2D1F2D292D5A0876
:101A40000319232D242D262D0130DA020130200028
:101A5000BD0021003703031D2E2D2F2D3A2D7F3081
:101A60005A020318342D352D372D0130DA07013095
:101A70002000BD0020003D0803193F2D402D462DBC
:101A8000943199248C318A3189228C3108002000CC
:101A9000A4007B0803194D2D4E2D512DFF30AE00B3
:101AA000522DAE017835A50080302406031D592D36
:101AB0005A2D8A2DA9017A08AD007908AC00662D4F
:101AC0000130A9070130AC070030AD3D2C0884007F
:101AD0002D0885001200031D6E2D6F2D602D0C301A
:101AE000F0002908A73145278D312000A9000230D8
:101AF000F0000030F1008030A00029082002F20040
:101B0000F301031CF303913122218D317008200071
:101B1000A800922D0C30F0002408A73145278D3104
:101B20002000A8002808F20025089A3197228D315C
:101B30007A082000AD007908AC000F2E2C08840034
:101B40002D0885000008E03EF000FF30031800304B
:101B5000F1000530F2000030F300993108218D3199
:101B600071082000A7007008A600AA017F30A0001D
:101B70008330A1002A082007A2000030213DA300E5
:101B80002208260784002308273D85000008B000AE
:101B9000AF13B01DCC2DAF1720002F13301DD12D4A
:101BA0002F172000AF12301DD62DAF1620002F1298
:101BB000B01CDB2D2F162000AF11B01CE02DAF158F
:101BC00020002F11301CE52D2F152000AF10301CE8
:101BD000EA2DAF1420002F102F082E06AF002F087B
:101BE0009C319B248D3120002F089C319B248D310A
:101BF00001302000AA0705302A02031C002E012E06
:101C0000B62D2E089C319B248D3120002E089C314E
:101C10009B248D3101302000AC070030AD3D2C08F5
:101C200084002D0885001200031D172E182E9E2DEE
:101C30002808F2002508013E9A3197228D317A0852
:101C40002000AD007908AC00962E2C0884002D08E9
:101C500085000008E03EF000FF3003180030F1007E
:101C60000530F2000030F300993108218D31710800
:101C70002000A7007008A600AB017F30A0008330D1
:101C8000A1002B082007A2000030213DA30022085C
:101C9000260784002308273D85000008B000AF1305
:101CA0002F13301F542E2F172000AF12301F592E24
:101CB000AF1620002F12B01E5E2E2F162000AF117F
:101CC000B01E632EAF1520002F11301E682E2F1569
:101CD0002000AF10301E6D2EAF1420002F10B01D4D
:101CE000722E2F1420002F082E06AF002F089C31D3
:101CF0009B248D3120002F089C319B248D31013095
:101D00002000AB0705302B02031C872E882E3D2EAA
:101D10002E089C319B248D3120002E089C319B2461
:101D20008D3101302000AC070030AD3D2C0884001F
:101D30002D0885001200031D9E2E9F2E252EA731F3
:101D400032278D31080091317D218E31883100207C
:101D50008E3121003E08803A2000C90080304902BF
:101D6000031DB52E053021003D02031CB82EB92EEF
:101D7000D22E21004603031DBE2EBF2ED22E4808B0
:101D800020005F06031DC82E2100470820005E06C4
:101D9000031DCB2ECC2ECF2EA631DB268E3120007C
:101DA000DE01DF0121004603031DD72ED82E232F8D
:101DB00020005F08803AC90021004808803A2000CE
:101DC0004902031DE72E2100470820005E02031888
:101DD000EA2EEB2E232F01302000E007643060064E
:101DE000031DF32EF42E232FE0010130DE07003017
:101DF000DF3D2100480820005F06031D032F21005E
:101E0000470820005E06031D062F072F232F983159
:101E100013208E3171082000E2007008E100993132
:101E200046218E31F801F80A1C30F900A830FA007A
:101E3000FB0180308D3147258E310030F100F200FA
:101E4000A73158278E3120005F08803AC900210051
:101E50004808803A20004902031D322F210047081C
:101E600020005E02031C352F362F3C2F2100460335
:101E700003193B2F3C2FF62F01302000DB070A30DF
:101E80005B06031D442F452F682FDB0121003E0810
:101E9000803A2000C90080304902031D522F0130D2
:101EA00021003D020318552F562F5D2F20005C089E
:101EB0005D0403195C2F5D2F682F21003E08200070
:101EC000DD0021003D082000DC00893129218E3110
:101ED00021004503031D6D2F6E2FA62F4903031903
:101EE000722F732FA62F3E08803A2000C900803041
:101EF0004902031D7E2F013021003D02031C812F6A
:101F0000822FA62F21004008803A2000C90021001E
:101F10004408803A20004902031D912F2100430804
:101F20003F02031C942F952FA62F42302000D30090
:101F3000A930D40002305307840054080318013E2E
:101F40008500013F8A00003F0A008F31FB302000EE
:101F50005906031DAC2FAD2FCD2F21004903031DC2
:101F6000B22FB32FBC2FC9014B08F2004A08F10071
:101F7000A73158278E31CD2F42302000D300A93011
:101F8000D40002305307840054080318013E850032
:101F9000013F8A00003F0A008F315030200059066F
:101FA000031DD32FD42FFF2F21004903031DD92F49
:101FB000DA2FE32FC9014B08F2004A08F100A731DC
:101FC00058278E31E82F84302000D300A930D40068
:101FD000023020005307840054080318013E850096
:101FE000013F8A00003F0A008F31FF2F2000590374
:101FF000031DFB2FFC2FFF2FA631DB268E3108009F
:1020000000340034533474346134723474347534AD
:102010007034203400340034203420342034203410
:102020002034203420342034003400342034203450
:102030002034203420342034203420340034003440
:1020400020342034203420342034203420342034F0
:102050000034003420342034203420342034203420
:102060002034203400340034203420342034203410
:102070002034203420342034003400342034203400
:1020800020342034203420342034203400340034F0
:1020900020342034203420342034203420342034A0
:1020A00000340034203420342034203420342034D0
:1020B00020342034003400342034203420342034C0
:1020C000203420342034203444342A348134003401
:1020D000BC340234643400343C340034B43400344E
:1020E0006434003401340134FF34FF34FF34FF34EE
:1020F000FF34FF34FF34FF34FF34FF34FF34FF3448
:10210000FF34FF34FF34FF34FF34FF34FF34FF3437
:10211000FF34FF34FF34FF34FF34FF34FF34FF3427
:10212000FF34FF34FF34FF34FF34FF34FF34FF3417
:10213000FF34FF34FF34FF34FF34FF34FF34FF3407
:10214000FF34FF34FF34FF34FF34FF34FF34FF34F7
:10215000FF34FF34FF34FF34FF34FF34FF34FF34E7
:10216000FF34FF34FF34FF34FF34FF34FF34FF34D7
:10217000FF34FF34FF34FF34FF34FF34FF34FF34C7
:10218000FF34FF34FF34FF34FF34FF34FF34FF34B7
:10219000FF34FF34FF34FF34FF34FF34FF34FF34A7
:1021A000FF34FF34FF34FF34FF34FF34FF34FF3497
:1021B000FF34FF34FF34FF34FF34FF34FF34FF3487
:1021C000FF34FF34FF34FF34FF34FF34FF34FF3477
:1021D000FF34FF34FF34FF34FF34FF34FF34FF3467
:1021E000FF34FF34FF34FF34FF34FF34FF34FF3457
:1021F000FF34FF34FF34FF34FF34FF34FF34FF3447
:102204007534A8346A34A8345F34A8345434A834F8
:102214004934A8343E34A8347834A9346634A93413
:102224006C34A9347234A9347E34A9346034A934AA
:102234005A34A9345434A9344834A9344E34A93412
:10224400F501F11F262927292E29F009F109F00AA1
:102254000319F10A0130F500F31F31293229392914
:10226400F209F309F20A0319F30A0130F506F6013B
:10227400F701700871040319402941296E290130BE
:10228400F4004B290130F035F10D890B452901305B
:10229400F407F11F4E294F2944290130F635F70D73
:1022A400890B502971087302031D5A2970087202A0
:1022B400031C5D295E2963297008F2027108F33B4F
:1022C40076140130F136F00C890B64290130F402E4
:1022D400031D6D296E294F29750803197229732965
:1022E4007829F609F709F60A0319F70A7708F100BD
:1022F4007608F0000800BD308600003087005331B6
:1023040000302000A3000030A2001030A1000030F3
:10231400A00021005208F0005308F100890D893B08
:102324008909F200F3005608F4005708F500890DF6
:10233400893B8909F600F7009B312A239131730800
:102344002000A7007208A6007108A5007008A40068
:102354009531A2259131403F20002007B500413F2F
:10236400213DB6003608FD003508FC009D31C1252D
:1023740091317D082000B8007C08B7003808803A05
:10238400B40080303402031DC92902303702031817
:10239400CC29CD29D0292000B701B8012000380864
:1023A4002100BE00200037082100BD0008002100E4
:1023B4006A082000C200210069082000C1005C08EE
:1023C400313EC100F801A230F900A930FA00FB0146
:1023D40000308D3147259131F8014130F90000304A
:1023E400FA00FB0109308D3147259131F801F80AD3
:1023F4006A30F900A830FA00FB0100308D3147251E
:1024040091310230F800A830F900A930FA00FB013C
:1024140000308D314725913102302000B1005C0835
:10242400BD00BE01BD35BE0D5D30BF000030C00033
:102434003D083F0786003E08403D8700403FB2000C
:10244400413FB3005B080319282A2A2A01302B2AAA
:102454000030B40006309E31A52691310330F800D7
:10246400E630F900A930FA0020005B0303193B2A87
:102474003D2A01303E2A0030FB0007308D314725CC
:102484009131080001302000DE070030DF3D0330C9
:102494005F02E83003195E02031C512A522A562AAD
:1024A4008731F6279231B12AFB305906031D5B2A86
:1024B4005C2A8F2ADE01DF015D085C02C600812AE6
:1024C40001302000DC078C2A5D08043EC300003084
:1024D40003180130C4004408803AC5008030450226
:1024E400031D762A5B0843020318792A7A2A622A92
:1024F40001302000DD07622ADD01DC018C2A460858
:10250400003A0319622A013A0319662A033A0319A5
:10251400622A7E2A9C312F249231503020005906A1
:10252400031D952A962AB12A5C08C300C401C33549
:10253400C40D4308600786004408613D8700403F9E
:10254400D300413FD40002305307840054080318D9
:10255400013E8500013F8A00003F0A0092310800D5
:1025640020005B08B5005C03031DB92ABA2ACC2AF3
:10257400F801DE30F900A930FA0035080319C32A3E
:10258400C52A0130C62A0030FB0007308D314725AB
:102594009231DD2AF801E230F900A930FA00350859
:1025A4000319D52AD72A0130D82A0030FB00073076
:1025B4008D314725923120005E08F9005D08F8004E
:1025C4003130FA000430FB0094311B249231F801BD
:1025D400F80A3130F9000030FA00200035030319FD
:1025E400F42AF62A0130F72A0030FB0007308D3137
:1025F400472592310330F800C030F900A930FA00C1
:102604000230200035060319082B0A2B01300B2B4E
:102614000030FB0000308D31472592310330F80043
:10262400E630F900A930FA0003302000350603191A
:102634001C2B1E2B01301F2B0030FB0007308D316B
:1026440047259231080020005B08BC006003031D8D
:102654002C2B2D2B3F2BF801DE30F900A930FA008A
:102664003C080319362B382B0130392B0030FB0082
:1026740007308D3147259331502BF801E230F900B2
:10268400A930FA003C080319482B4A2B01304B2B84
:102694000030FB0007308D31472593312000B10114
:1026A400B10A5F08B3005E08B2003C0303195B2B58
:1026B4005D2B01305E2B0030B40006309D31452582
:1026C400933102302000B1005D08B3005C08B20011
:1026D40002303C0603196F2B712B0130722B003032
:1026E400B40006309D31452593310330F800C030E5
:1026F400F900A930FA00033020003C060319832BAB
:10270400852B0130862B0030FB0000308D314725AE
:1027140093310330F800E630F900A930FA000430B0
:1027240020003C060319972B992B01309A2B00307B
:10273400FB0007308D314725933108009931E121A1
:1027440093319B31C52393319F31A5279331A63112
:10275400F3269331A731D4279331F430F0000130BC
:10276400F10098315D209331F701F70A7830973101
:102774005E279331F8012E30F900A930FA00FB01ED
:1027840080308D3147259331F801F80AEE30F90095
:10279400A830FA00FB0180308D3147259331023097
:1027A400F800BA30F900A930FA00FB0180308D310D
:1027B40047259331DC30F0000530F10098315D207D
:1027C40093319931462193318731F6279331A030E3
:1027D400F3000130F4000A30F50000309831932002
:1027E400933123002108F2002008F100A731582773
:1027F400933121003B083C060319012C022C092CBF
:102804000130BB070130BA0787311D2793310A30E5
:1028140021003A06031D0F2C102CFB2BBA019E310C
:10282400F62693319831CD2093316400FB2B80310F
:1028340015282000A00102307B020318222C232C2F
:10284400242C982C7B08FF3EA1007A082107A200C3
:102854002208860087018101F91F312C322C392C82
:102864000130A000F809F909F80A0319F90A01303E
:10287400A1020130A2027908803AFC0080307C0277
:10288400031D462C01307802031C492C4A2C6C2C65
:1028940020002208860087010A30F0000030F10091
:1028A4007908F3007808F2009E31542694317008B8
:1028B400303E81000A30F0000030F1007908F30066
:1028C4007808F2009131222194317108F9007008DE
:1028D400F800922C7B08FE3EFC00FF300318003009
:1028E400FD00200021087C067D04031D7A2C7B2C2E
:1028F400812C22088600870130308100922C200828
:102904000319852C862C8D2C2208860087012D30F6
:102914008100A001922C22088600870120308100CA
:1029240020002108031D972C982C392C0800210025
:102934005A08F00070189F2CA22C22008D15A42C8C
:1029440022008D11F018A72CAA2C22000C15AC2CF7
:1029540022000C117019AF2CB22C22000D16B42CCD
:1029640022000D12F019B72CBA2C22008C15BC2CA5
:1029740022008C11701ABF2CC22C22008D16C42C7C
:1029840022008D12F01AC72CCA2C22008C16CC2CD3
:1029940022008C12701BCF2CD22C22000C16D42CAB
:1029A40022000C1221005908F0007018DA2CDD2CDA
:1029B40022008E17DF2C22008E13F018E22CE52C57
:1029C40022008E15E72C22008E117019EA2CED2CB2
:1029D40022000E17EF2C22000E13F019F22CF52C06
:1029E40022000E15F72C22000E11701AFA2CFD2C61
:1029F40022008E16FF2C22008E12F01A022D052DB5
:102A040022008E14072D22008E10701B0A2D0D2D0E
:102A140022000E160F2D22000E122100580C220047
:102A2400031C0E1003180E14080001302000DB07ED
:102A34000030DC3D03305C02E83003195B02031C08
:102A4400242D252D292D8731F6279531A12DFB30F5
:102A54005906031D2E2D2F2D5F2DDB01DC015F0890
:102A64005D02C600542D01302000DD075C2D5F0897
:102A7400033EC300003003180130C4004408803A08
:102A8400C50080304502031D492D0A304302031856
:102A94004C2D4D2D352D01302000DF07352DDF0164
:102AA400DD015C2D4608003A0319352D013A03195E
:102AB400392D512D9F314D27953150302000590625
:102AC400031D652D662DA12D5E03031D6A2D6B2D3F
:102AD400882D5D08031D6F2D702D752D3630D300A4
:102AE400A930D4007B2D5D08DB003C30D300A93035
:102AF400D40002305307840054080318013E8500B3
:102B0400013F8A00003F0A009531A12D4730F300B0
:102B14000030F4000A30F5000A30F0005D08A731F7
:102B240045279531003E983193209531200048087F
:102B3400F2004708F100A73158279531252D0800E8
:102B44002000A901A31FA72DA82DB52DA009A10917
:102B5400A209A309A00A0319A10A0319A20A0319C5
:102B6400A30A0130A900A71FB82DB92DC62DA409A9
:102B7400A509A609A709A40A0319A50A0319A60AFF
:102B84000319A70A0130A9060030AD000030AC00DB
:102B94000030AB000030AA002308220421042004E2
:102BA4000319D52DD62D152E0130A800E22D0130A4
:102BB400A035A10DA20DA30D890BDA2D0130A807B4
:102BC400A31FE52DE62DD92D0130AA35AB0DAC0D93
:102BD400AD0D890BE72D23082702031DFB2D2208C9
:102BE4002602031DFB2D21082502031DFB2D2008B1
:102BF4002402031CFE2DFF2D082E2008A402210808
:102C0400A53B2208A63B2308A73B2A140130A33680
:102C1400A20CA10CA00C890B092E0130A802031DE3
:102C2400142E152EE62D29080319192E1A2E252ED9
:102C3400AA09AB09AC09AD09AA0A0319AB0A03191D
:102C4400AC0A0319AD0A2D08A3002C08A2002B0816
:102C5400A1002A08A0000800FB3020005906031D2B
:102C6400342E352E412E0130DB0704305B02031C69
:102C74003C2E3D2E3E2EDB019231B2229631503055
:102C840020005906031D472E482EBF2E2830D90296
:102C94005B08031D4E2E4F2E5B2E5C03031D532E2B
:102CA400542E562EDC01582E0130DC009231B22213
:102CB400963120005B03031D602E612E8E2E5E086C
:102CC400803AB60080303602031D6A2E64305D02FD
:102CD400031C6D2E6E2E742E0A302000DD0700308A
:102CE400DE3D792E05302000DD070030DE3D5E0834
:102CF400803AB60083303602031D822E85305D0291
:102D0400031C852E862E8B2E05302000DD0000301E
:102D1400DE009231B2229631023020005B06031DA0
:102D2400942E952EB82E5E082100C80020005D0860
:102D34002100C70020005C082100C600C730F30052
:102D44000030F4000230F5006C30983144209631A4
:102D5400C630F3000030F400F501F50A7230983102
:102D6400442096318731F6279631BF2E03305B0617
:102D7400031DBD2EBE2EBF2EB42E08002000590800
:102D8400031DC52EC62EC82E2830DD00FB30590683
:102D9400031DCD2ECE2EDA2E0130DC070A305C0264
:102DA400031CD52ED62ED72EDC018931D5219631A0
:102DB400503020005906031DE02EE12E5D2F5D08E2
:102DC400D9020B305D02031CE82EE92EEB2E0530F0
:102DD400DD0208305C020318F02EF12E332F603030
:102DE400BA000030BB005C083A07860000303B3D67
:102DF40087000108BC00BD01012F0130BD073D085B
:102E0400003E8400A0300318013E850000083C0603
:102E140003190D2F0E2F142F49303D02031C132FBD
:102E2400142FFF2E0130BD0748303D02031C1B2F19
:102E34001C2F1D2FBD016030BA000030BB005C08A0
:102E44003A07860000303B3D87003D08003E840081
:102E5400A0300318013E8500000881008931D52186
:102E64009631083020005C06031D392F3A2F562F67
:102E740098311320963171082000DF007008DE00BD
:102E84005E30F3000030F4000A30F5000A30F00040
:102E94005B08A73145279631003E9831442096318E
:102EA4008731F62796315D2F09305C06031D5B2FB1
:102EB4005C2F5D2F522F0800F80078082000DA00FC
:102EC40077082100B9000D178D1722000D138D13FB
:102ED4000630890B6B2F003298312B20973120005C
:102EE4005A089C319B24973100309C319B249731A4
:102EF400AE309C319B249731D5309C319B24973143
:102F040080309C319B249731A8309C319B2497318D
:102F14003F309C319B249731D3309C319B24973193
:102F240000309C319B24973140309C319B24973155
:102F34008D309C319B24973114309C319B249731E4
:102F440081309C319B249731FF309C319B249731F5
:102F5400D9309C319B249731F1309C319B2497319B
:102F640020309C319B24973102309C319B24973133
:102F740021309C319B24973100309C319B24973124
:102F84007F309C319B2497312E309C319B24973188
:102F940021003903031DCF2FD02FD92FA0309C310E
:102FA4009B249731C0309C319B249731E12FA13071
:102FB4009C319B249731C8309C319B249731DA3063
:102FC4009C319B24973112309C319B249731DB3008
:102FD4009C319B24973140309C319B249731A43001
:102FE4009C319B249731A6309C319B249731A73187
:102FF400322797319931462197310800993146217A
:103004009831F801C230F900A830FA00FB01003011
:103014008D31472598312000DE01A631E72698310D
:10302400080021005908F200F3017208F300F201CC
:103034005A087207F5000030733DF600580803196A
:10304400242825282628F6177608F1007508F000AC
:10305400080021000D170630890B2E2800322100AC
:103064008D170630890B3428003221008D13063069
:10307400890B3A28003221000D130630890B4028B1
:1030840000320800F6007308F70057287708860016
:1030940087010108F00076089831EA209831013060
:1030A400F5020130F6070130F7077508031D5B28A8
:1030B4005C28482808007108F4007008F3006400D4
:1030C40070280630F2003030890B6628F20B66282F
:1030D400003264000130F3020030F43B73087404DE
:1030E400031D7528762863280800993146219831F4
:1030F400A631BE2698312000DB0198311320983187
:1031040071082000DD007008DC00DE012100D80118
:10311400D901DA019431992498318A31892298317C
:103124000800F6007408F8007308F700AA28770866
:103134008600780887007608A631D0269831810069
:103144000130F5020130F6070130F7070030F83D91
:103154007508031DAE28AF28992808009931462127
:1031640098312000DB01DC0121004D082000DE0045
:1031740021004C082000DD0021004F082000E00061
:1031840021004E082000DF00A631BE26983191317F
:10319400D9219831080004302000530784005408D2
:1031A4000318013E85001200D1001200D104031956
:1031B400DC28DD28E9280430530784005408031868
:1031C400013E8500013F8A00003F0A009831080053
:1031D400F1007108230091007008930095131513F2
:1031E40015150B0D0B0D0139F2008B13553096009C
:1031F400AA3096009514951800290129FD28151167
:10320400720C031C8B1303188B170800F401F501CF
:10321400701C0D290E2912297208F4077308F53D54
:103224000130F235F30D890B13290130F136F00C1E
:10323400890B182970087104031D212922290A29E0
:103244007508F1007408F00008009931462199319D
:10325400A631BE269931F8010130F900A930FA00EF
:10326400FB01FB0A80308D31472599312000DC01B8
:1032740098311320993171082000DE007008DD00B8
:10328400A731002799310800A631B4269931F601F7
:10329400F20176089A3197229931F50100309C3178
:1032A4009B2499310130F50780307502031C5B299A
:1032B4005C2950290130F60708307602031C632983
:1032C40064294A29A73132279931A631B92699317F
:1032D400080021003508FC0002307C06031D732918
:1032E40074297F2920005C08031979297A297D290A
:1032F400DC01FC017F290130DC000230F8007C3560
:10330400483E860001308700403FF900413FFA0003
:10331400FB0180308D314725993108000330F800D6
:10332400C030F900A930FA0020005C0803199B2979
:103334009D2901309E290030FB0000308D31472546
:1033440099310330F800E630F900A930FA00200082
:103354005C030319AE29B0290130B1290030FB0008
:1033640007308D3147259931080080314B20993140
:1033740001302000DB0732305B06031DC229C3295C
:10338400C729DB0199316B21993120005903031DB1
:10339400CC29CD29D8295E08F2005D08F100A731B7
:1033A400582799318731F6279931E02905302100D2
:1033B4003506031DDE29DF29E029D4290800FF3062
:1033C400A631D0269931F33A031DE929EA29EB29DC
:1033D4000D2AF301F4010030730784001030743DAA
:1033E400803885000008F00073089831EA2099318C
:1033F4000130F3070030F43D00307402FF3003194C
:103404007302031C062A072AED29F330F000FF306B
:103414009831EA2099310800993146219A31A63130
:10342400BE269A31F8019630F900A930FA00FB0162
:1034340000308D3147259A31F801F80A9C30F900A3
:10344400A930FA00FB0100308D3147259A31200064
:10345400DB01210046082000DC0021004808200090
:10346400DE00210047082000DD009231B2229A31AB
:1034740008000730200024020318412A422A432A64
:10348400682A9B315D239A3171082000A6007008D8
:10349400A5002608F9002508F8002308FA000530DD
:1034A400FB0094311B249A3120002308043E86003B
:1034B4008701703081002308053E8600870146306D
:1034C40081002308063E8600870181010800073039
:1034D4002000240203186F2A702A712A962A9B312D
:1034E40091239A3171082000A6007008A5002608CF
:1034F400F9002508F8002308FA000530FB00943190
:103504001B249A3120002308043E860087016E3074
:1035140081002308053E8600870148308100230886
:10352400063E8600870181010800F40098312B20B3
:103534009A3120005A089C319B249A3100309C31E6
:103544009B249A317408B03E9C319B249A317208B2
:103554000F399C319B249A317208F3000430F336FE
:10356400890BB12A7308103E9C319B249A319831FF
:103574002B209A3120005A089C319B249A314030E8
:103584009C319B249A310800F7007708F200F20D71
:10359400F20D21001D087206833972069D00063063
:1035A400890BD22A003221009D149D18DA2ADB2AC5
:1035B400D72A1C08F200F3017208F8007308F90016
:1035C4007908F3007808F2007208F300F2011B088E
:1035D4007207F5000030733DF600F535F60DF5354C
:1035E400F60D7508F0007608F100080099314621BF
:1035F4009A31A631BE269A31F801EA30F900A93091
:10360400FA00FB0100308D3147259A31F801F80AA0
:10361400EE30F900A930FA00FB0100308D31472566
:103624009A312000DB01FF30DC00FF30DD00E001D7
:10363400DE01DF01983113209A3171082000E20085
:103644007008E1002100BD01BE01BF01C0010800F6
:103654000030FB000030FA000030F9000030F800C0
:10366400701C352B362B3E2B7408F8077508F93D72
:103674007608FA3D7708FB3D0130F435F50DF60D7B
:10368400F70D890B3F2B0130F336F20CF10CF00CE3
:10369400890B462B7308720471047004031D532BA9
:1036A400542B322B7B08F3007A08F2007908F100DE
:1036B4007808F0000800F601F701F8010130F20083
:1036C400780A652BF235890B642B720821005905A1
:1036D40003196D2B6E2B842B7808F200F301F2355D
:1036E400F30D0E30720784002830733D8038850056
:1036F400003FF400013FF50076087407F6007708F0
:10370400753DF7000130F80707307802031C8B2B56
:103714008C2B602B7708F1007608F0000800F60186
:10372400F701F8010130F200780A992BF235890B80
:10373400982B720821005A050319A12BA22BB82B30
:103744007808F200F301F235F30D003072078400BB
:103754002830733D80388500003FF400013FF500B8
:1037640076087407F6007708753DF7000130F8070E
:1037740007307802031CBF2BC02B942B7708F10071
:103784007608F00008007A302100990022008C01AC
:103794008D018E0120001C08FC3902389C00873002
:1037A4009C05FA309B00210091140B1720001C1576
:1037B4008B17C03023008D05220091139313210031
:1037C4008E138E110E130E118E128E100E120E10F9
:1037D4008D110C110D128C118D128C120C12DA0138
:1037E400D901D8016430C1000030C200951308002B
:1037F400FB3020005906031D002C012C0D2C013038
:10380400DC0702305C02031C082C092C0A2CDC01A6
:10381400993190219B31503020005906031D132CFF
:10382400142C2E2C5C08031D182C192C2B2C9831CD
:1038340013209B3171082000DE007008DD005D302C
:10384400F3000030F4000A30F500003098314420D1
:103854009B318731F6279B31080020005D08FC006E
:10386400FD017D08F8007C082000B100B201B135EB
:10387400B20D3108600786003208613D8700403F81
:10388400B300413FB4003308840034088500003F8E
:10389400F900013FFA005C087C060319522C542CF1
:1038A4000130552C0030FB0080308D3147259C3190
:1038B4000130FC070130FD0704307D02031C632C3A
:1038C400642C332C0800993146219C31F8011330C3
:1038D400F900A930FA00FB0180308D3147259C3175
:1038E400F801F80A0A30F900A930FA00FB01803027
:1038F4008D3147259C310230F800FB30F900A930A6
:10390400FA00FB0180308D3147259C310330F800EB
:10391400B430F900A930FA00FB0180308D3147251D
:103924009C31A631BE269C312000DB01DC01DD0187
:103934000800F000F101F01BA02CA12CA42C210004
:103944008D13A62C21008D170630890BA72C00326D
:1039540021000D170630890BAD2C003221000D1308
:103964000630890BB32C00327035F0000130F107BA
:1039740008307102031CBF2CC02C9D2C21008D1714
:103984000630890BC32C003221000D170630890B39
:10399400C92C003221000D130630890BCF2C0032C4
:1039A4000800210063082000BA00210064082000F8
:1039B400BB00210065082000BC005B08303EBA0053
:1039C400993146219C31F8013A30F9000030FA006F
:1039D400FB0100308D3147259C315E30F30000300F
:1039E400F4000A30F5000A30F00020005B08A7312B
:1039F40045279C31003E983193209C312000DC0106
:103A04002830DD00A631BE269C318931D5219C3178
:103A14000800993146219D31210060082000B10041
:103A2400210061082000B200210062082000B300D8
:103A3400F801F80A3130F9000030FA00FB010030D7
:103A44008D3147259D315D30F3000030F4000A309C
:103A5400F5000030983193209D312000E701F801F2
:103A6400F80A5F30F9000030FA00FB0102308D31B2
:103A740047259D312000DC01A631BE269D319931B8
:103A840090219D3108002000B600DB308600003014
:103A9400870037308400003085000530B5001600FB
:103AA4001A00B50B512D3308803AB5008030350229
:103AB400031D5E2D64303202031C612D622D732DB3
:103AC40020003308F9003208F8003830FA000430D6
:103AD400FB0094311B249D3120003808B7002E30A0
:103AE400B80020003108F8003730F9000030FA003F
:103AF4003408FB0036088D3147259D310800993183
:103B040046219D31A631BE269D31F801CA30F90007
:103B1400A930FA00FB0100308D3147259D31F801B1
:103B2400F80A9030F900A930FA00FB0100308D3119
:103B340047259D310230F800C530F900A930FA005C
:103B4400FB0100308D3147259D312000DB01210030
:103B540045082000E000210044082000DF00210087
:103B640043082000DE00210042082000DD0021007F
:103B740041082000DC00933125239D3108000030EA
:103B84002000A3000030A200C330A1005030A000E8
:103B9400A830AE006130AF000030B0000030B1009A
:103BA4007C08F0007D08F100890D893B8909F20049
:103BB400F3007C08F4007D08F500890D893B890930
:103BC400F600F7009B312A239D3170082000AE07D0
:103BD4007108AF3D7208B03D7308B13D3108A700CC
:103BE4003008A6002F08A5002E08A4009531A225B0
:103BF4009D3120002108B3002008B2003308FD00E5
:103C04003208FC00080001302000DC070030DD3DF4
:103C140003305D02E83003195C02031C122E132EDC
:103C2400172E8731F6279E31532E5903031D1B2E61
:103C34001C2E532EDC01DD015B08031D222E232ED6
:103C4400132E0130DB07993146219E31F8012530CE
:103C5400F900A930FA00FB0180308D3147259E31EF
:103C6400F801F80A1C30F900A930FA00FB01803091
:103C74008D3147259E310230F800FB30F900A93020
:103C8400FA00FB0180308D3147259E310330F80066
:103C9400AE30F900A930FA00FB0180308D314725A0
:103CA4009E310800F501F31F582E592E602EF2099B
:103CB400F309F20A0319F30A0130F500F11F632E28
:103CC400642E692EF009F109F00A0319F10A70084B
:103CD400710403196E2E6F2E962E0130F400792E86
:103CE4000130F035F10D890B732E0130F407F11F0B
:103CF4007C2E7D2E722E71087302031D832E700894
:103D04007202031C862E872E8B2E7008F202710815
:103D1400F33B0130F136F00C890B8C2E0130F402A8
:103D2400031D952E962E7D2E750803199A2E9B2E13
:103D3400A02EF209F309F20A0319F30A7308F10039
:103D44007208F00008002000B6000130B700330804
:103D5400803AB50080303502031DB22E6430320241
:103D6400031CB52EB62EC82E0A30F0000030F10028
:103D740020003308F3003208F200913122219E31F1
:103D840071082000B3007008B200B70120003308A6
:103D9400F9003208F8003830FA000430FB0094319E
:103DA4001B249E31200037080319D92EDA2EE62E63
:103DB4003908B80020303806031DE12EE22EE42E27
:103DC4003030B8002E30B9005730BB00BC01310888
:103DD400F8003830F9000030FA003408FB003608E7
:103DE4008D3147259E31080020000D18FA2EFB2E38
:103DF4000D2FFA3059020318002F012F032F013021
:103E0400D90750305906031D082F092F262F0130DA
:103E14002100B800262F21003808031D122F132F6C
:103E2400222F200059080319182F192F222FFB3095
:103E3400590203181E2F1F2F222FFB30D900242FC5
:103E44002000D9012100B80120008D182A2F2B2F22
:103E5400372F01302100B70714303702031C332FEA
:103E6400342F392F0130B700392F2100B70120003A
:103E74000D193D2F3E2F4A2F01302100B607143073
:103E84003602031C462F472F4C2F0130B6004C2F0F
:103E94002100B6010800210066082000B1002100BD
:103EA40067082000B200210068082000B300C001A8
:103EB4005F084007B4003408303EB1004008013EBA
:103EC400F8003130F9000030FA005D0834060319B7
:103ED4006C2F6E2F01306F2F0030FB0000308D31BE
:103EE40047259F313530F3000030F4000A30F500E7
:103EF4000A30F00020003408A73145279F31003EE6
:103F0400983193209F312000BF014008013EF80002
:103F14003730F9000030FA005D0834060319932F96
:103F2400952F0130962F0030FB0002308D3147254C
:103F34009F3101302000C00703304002031CA32F2F
:103F4400A42F5A2F0800C130F3000030F4000230CF
:103F5400F5007030983193209F31C330F300003066
:103F6400F4000230F5006E30983193209F31C53053
:103F7400F3000030F400F501F50A73309831932012
:103F84009F31C730F3000030F4000230F5006C308C
:103F9400983193209F31C630F3000030F400F501CE
:103FA400F50A7230983193209F31CC30F300003001
:103FB400F4000230F5006A30983193209F31CE30FE
:103FC400F3000030F4000230F5006830983193209B
:103FD4009F31D030F3000030F4000230F500663039
:103FE400983193209F31D230F3000030F400023036
:103FF400F5006430983193209F3108002034303428
:104004003134323433343434353436343734383468
:104014003934613462346334643465346634673407
:10402400683469346A346B346C346D346E346F3490
:104034007034713472347334743475347634773440
:10404400783479347A344134423443344434453412
:1040540046344734483449344A344B344C344D3470
:104064004E344F3450345134523453345434553420
:1040740056345734583459345A343F3421342F3455
:0E4084002B342D342334253424345F3400349F
:104D6800AE30A7318027A6310800AF30A7318027A1
:104D7800A6310800FF302000D9002100B801080042
:104D8800640080010131890BC52E0034FE00120039
:104D98001E00FE0BCB2E0034F0007008230091009B
:104DA800951315131514000023001308080020009C
:104DB8006208F2006108F100A7315827A6319A313C
:104DC800F822A63108002000DD01DF01DB01DC014B
:104DD8009F314D27A631A631BE26A63108002100F5
:104DE8000D1424000D1421008D1424008D142100AD
:104DF8000D1524000D15080001302100B500B30180
:104E0800B201B101D801D901DA0194319924A7314D
:104E180002302100B200080030342E3430343034EF
:104E2800003430343A34003430343A3400343034D6
:104E38003A340034203400342000B4003208B5007D
:104E4800B6013108F8003530F9000030FA003308AF
:104E5800FB0034088D314725A731080021008D1348
:104E68000630890B352F003221000D170630890BCB
:104E78003B2F003221008D170630890B412F00325D
:104E88000800F200F101721C4A2F4B2F4D2F7008B9
:104E9800F1070310F00D0310F20C7208031D552FD3
:104EA800562F472F71080800F21F5B2F5C2F602FC9
:104EB80001302100D800622F2100D80172087F3903
:104EC800D90071087F39DA0094319924A731080094
:104ED80099314621A731F801CD30F900A830FA0000
:104EE800FB0100308D314725A73101302000DE005D
:104EF800A631E726A7310800F20098312B20A73108
:104F080020005A089C319B24A73180309C319B2477
:104F1800A73172089C319B24A731A7313227A731CA
:104F2800080099314621A731A631BE26A7312000B5
:104F3800DC01DD01DE01DF010630DB005430E0007A
:104F48000130E1009C312F24A73108009931462116
:104F5800A731A631BE26A7312000DC01DD01DE0124
:104F6800DF010430DB006030E0000130E1009C31FB
:104F78002F24A731080001302100C90098311320DF
:104F8800A73171082100CB007008CA000030F10079
:104F9800F200A7315827A7318731F627A731080033
:104FA80021000C1423000C1421008C1423008C14F1
:104FB80083302200970021009E171E088F39203861
:104FC8009E001E1103309E041D140800F001FF30DE
:104FD8009831EA20A73199314621A731F801F80A1A
:104FE8001D30F900A830FA00FB01FB0A80308D3132
:104FF8004725A731FE2F08003234003464340034CA
:10500800DC340034C2340134E834033498340834CE
:10501800303411340A340034163400342F34003458
:1050280064340034DC340034D6340134E8340334D6
:1050380000345234653473347434613472347434E3
:1050480069346E3467340034003401340234043473
:105058000834103420344034603470347F340034E1
:1050680001340234043408341034203440346034B9
:1050780070347F34203420345234653461346434DD
:105088007934203420342034003420344C346F34C4
:105098007734203450345734523420342034003498
:1050A8002034203442347234653461346B34203413
:1050B8002034203400342034523475346E346E3445
:1050C80069346E3467342034203400345234463422
:1050D80020346E3465346534643465346434203483
:1050E8000034203420342034203420342034203438
:1050F8002034203420340034413462346F34753421
:105108007434203420342034203420340034533490
:1051180065347434753470342034203420342034A9
:1051280020340034433461346C346934623472346A
:105138006134743465342034003454346534733441
:105148007434203420342034203420342034003483
:1051580053346C346534653470342034203420344E
:10516800203420340034543475346E3469346E3449
:105178006734203420342034203400344C346F34E5
:10518800613464342034543475346E3465342034D6
:1051980000345334613476346534203454347534EF
:1051A8006E346534203400344234793470346134D8
:1051B800733473342034203420342034003452348F
:1051C8006534733465347434203420342034203406
:1051D800203400344534583454342D34593441344F
:1051E80046342D3432340034203442347934703427
:1051F80061347334733420340034203454347534B7
:105208006E3469346E34673420340034663469345B
:1052180072346D3477346134723465340034203438
:1052280046346F3472346B3465346434203400345B
:105238006634693472346D34773461347234653469
:1052480000344F3472346934673469346E346134ED
:105258006C3400344134543455342D3431343034C2
:1052680030340034003400340B341D34FA341B3429
:1052780000340034D3341C34C034163400340034C1
:1052880027341934B73419349634A834B034183460
:105298005F340534A134A8347734183409340C3415
:1052A800AC34A8340E341A342E341634B734A83437
:1052B80081341D343F340B348034A83465341C34B5
:1052C80005341E34C234A834003418341734153465
:1052D800CD34A8346C34273417341534E334A83467
:1052E800EA34273400340034D834A834BF3427349F
:1052F800003400348B34A834AA34273444341234AC
:1053080000340034953427344434123400340034E3
:10531800F8341A34A3340E34533474346134723488
:105328007434003453346C34653465347034003468
:10533800443465346C3461347934003450346F3417
:1053480069346E347434003450346F3477346534CF
:105358007234003444344734343453344E340034D3
:10536800533450343634503457340034563431348E
:105378002E34303430340034533461347634653468
:105388000034533474346F34703400344134753419
:1053980074346F3400344134553454344F34003449
:1053A8003E344C342D34433400343E3443342D34AD
:1053B8004C34003420344F346E3400344F34663467
:1053C800663400344534733463340034503457340D
:1053D8005234003453345734523400344F346B341D
:1053E800003443343D3400344C343D3400346234AA
:0453F80079340034D0
:020000040001F9
:08000000FF3FFF3FFF3FFF3F00
:04000E00FF3FFF3F72
:10E00000000000005300740061007200740075008D
:10E0100070002000000000002000200020002000F0
:10E020002000200020002000000000002000200030
:10E030002000200020002000200020000000000020
:10E0400020002000200020002000200020002000D0
:10E050000000000020002000200020002000200000
:10E0600020002000000000002000200020002000F0
:10E0700020002000200020000000000020002000E0
:10E0800020002000200020002000200000000000D0
:10E090002000200020002000200020002000200080
:10E0A00000000000200020002000200020002000B0
:10E0B00020002000000000002000200020002000A0
:10E0C0002000200020002000E0002E00960000002C
:10E0D000EE000200320000001E000000BE00000042
:08E0E0007300000000000000C5
:00000001FF
