:04000000803115280E
:100008007E14803100308600003087002000911C6B
:100018000E280F281328911001302100C0077E10E8
:100028000900803117286F308400A6308500DF3042
:100038008600003087001030A6312026803103303A
:1000480084009130850048308600013087002030D8
:10005800A631202680315D308400003085001330C1
:10006800A6311A268031A0308400003085003F3048
:10007800A6311A26803120308400013085002830CE
:10008800A6311A2680317E1020009231052A0330CD
:10009800210038060319512852287F2B05303806CD
:1000A800031D5728582859287F2B350803195D2820
:1000B8005E2861280130B5027F2B9F3139278031B6
:1000C8009331F42380312100360803196C286D28F8
:1000D800702B4208803A2000B90080303902031D95
:1000E800782805302100410203187B287C28702BD2
:1000F80004302100B8007F2B4208803A2000B90064
:1001080080303902031D8B28053021004102031C71
:100118008E288F287F2B0A302100B6000230B800C5
:10012800E730AA000330AB00E730A8000330A9008D
:10013800E730A6000330A7002000DF01DE01210020
:10014800B40102302100B5007F2B4608803A200018
:10015800B90021004408803A20003902031DB7285D
:10016800210043084502031CBA28BB28BF280530D4
:100178002100B8007F2B21004408803A2000B900F4
:1001880021002908803A20003902031DCE282100C9
:10019800280843020318D128D228D7282100440868
:1001A800A9004308A80021004408803A2000B900AB
:1001B80021002B08803A20003902031DE62821007F
:1001C8002A0843020318E928EA28F92821004408E4
:1001D800AB004308AA0020005E08DD005F0821008C
:1001E800B3005C08B2000130B40001302000DE0723
:1001F8000B305E020318012902292A291430F00065
:100208000030F10021002908F3002808F2009E318F
:10021800DE2680312100280870072000B90021005F
:100228002908713D2000BA003A08803ABB00210035
:100238004408803A20003B02031D26292100430878
:1002480020003902031829292A298C292000DE01D7
:100258000130DF071430F0000030F10021002708DA
:10026800F3002608F2009E31DE26803121002608A0
:1002780070072000B90021002708713D2000BA004E
:100288003A08803ABB0021002908803A20003B0246
:10029800031D522921002808200039020318552976
:1002A80056296E2921005C03031D5B295C295F29FF
:1002B8001430B6007F2B0130DC002000DE01DF01A6
:1002C800E7302100A8000330A900E730A60003307A
:1002D800A700732921002908A7002808A600E730ED
:1002E800A8000330A9000B3020005F02031C7D2901
:1002F8007E298C29DF01E7302100A8000330A900FE
:100308005C03031D882989298A295C290130DC00BE
:1003180020005E08273E8400A8300318013E8500AF
:1003280000082100DD0020005F081C3E8400A83082
:100338000318013E850000082100DE009331762372
:100348008031A5283408031DAA29AB29B229DC016C
:10035800DD01DE01933176238031BB283208DC00D1
:1003680020005D08273E8400A8300318013E850060
:1003780000082100DD0033081C3E8400A830031863
:10038800013E85000008DE0020005D08273E84004D
:10039800A8300318013E850000082100A400330896
:1003A8001C3E8400A8300318013E85000008A10007
:1003B80020005D08031DE129E229E529BC01BD01F2
:1003C800072A0230F0000030F1005D08273E840063
:1003D800A8300318013E85000008B9005D08263ED4
:1003E8008400A8300318013E850000083902F20095
:1003F800F301031CF3039E31DE26803171082000CF
:10040800BD007008BC003C082100B1000A30200083
:100418005D02031C102A112A142ABE01BF01362AC4
:100428000230F0000030F1005D08283E8400A8305A
:100438000318013E85000008B9005D08273E8400C6
:10044800A8300318013E850000083902F200F301C4
:10045800031CF3039E31DE26803171082000BF00A3
:100468007008BE003E082100B0003308031D3D2A75
:100478003E2A422A2000C001C101672A0230F0004A
:100488000030F10033081C3E8400A8300318013EF8
:10049800850000082000B900210033081B3E8400B5
:1004A800A8300318013E8500000820003902F20038
:1004B800F301031CF3039E31DE268031710820000E
:1004C800C1007008C00040082100AF000A303302A4
:1004D800031C6F2A702A742A2000C201C301992ABA
:1004E8000230F0000030F10033081D3E8400A830CF
:1004F8000318013E850000082000B90021003308D8
:100508001C3E8400A8300318013E85000008200026
:100518003902F200F301031CF3039E31DE26803119
:1005280071082000C3007008C20042082100AE0014
:1005380031082402A30024083007A5002F0821024F
:10054800A00021082E07A200E730AA000330AB0064
:1005580001302000DE000130DF0021002408DD002A
:100568002108DE0093317623803102302100B50066
:100578001E30B6007F2B4608803A2000B9002100C3
:100588004408803A20003902031DCD2A210043087F
:100598004502031CD02AD12AD22ABB2821004408AC
:1005A800803A2000B90021002B08803A2000390247
:1005B800031DE12A21002A0843020318E42AE52A38
:1005C800F02A21004408AB004308AA0020005E0876
:1005D800DD005F082100B30020005E03031DF52A3B
:1005E800F62A0A2B2100240823060319FC2AFD2ACF
:1005F800002B2000DE01452B250824060319052BB6
:10060800062B0A2B02302000DE00452B20005E0856
:10061800031D0F2B102B182B210025082406031966
:10062800162B172B182B062B01302000DE005F033A
:10063800031D1F2B202B342B210021082006031912
:10064800262B272B2A2B2000DF01452B22082106E9
:1006580003192F2B302B342B02302000DF00452BC1
:1006680020005F08031D392B3A2B422B210022085A
:1006780021060319402B412B422B302B013020003F
:10068800DF005E03031D492B4A2B5D2B5F03031D0F
:100698004E2B4F2B5D2B5D08A33E8600870101087A
:1006A8002100DD003308A03E860087010108DE0036
:1006B800AE295E08A33E8600870101082100DD00FF
:1006C80020005F08A03E8600870101082100DE00A7
:1006D800A2290330B8007F2B21003608003A0319FD
:1006E80080280A3A0319A9281E3A0319A6290A3AA2
:1006F8000319BF2A6D2B080000340034003400347D
:100708000034003400345F340034003400340734DB
:1007180000340734003414347F3414347F341434F0
:1007280024342A347F342A341234233413340834DA
:100738006434623436344934553422345034003405
:10074800053403340034003400341C34223441347A
:1007580000340034413422341C34003408342A3440
:100768001C342A340834083408343E340834083435
:100778000034503430340034003408340834083439
:100788000834083400343034303400340034203431
:1007980010340834043402343E3451344934453476
:1007A8003E34003442347F344034003442346134BF
:1007B8005134493446342134413445344B3431348E
:1007C8001834143412347F34103427344534453403
:1007D800453439343C344A344934493430340134AA
:1007E80071340934053403343634493449344934CE
:1007F800363406344934493429341E340034363406
:10080800363400340034003456343634003400347E
:100818000034083414342234413414341434143475
:100828001434143441342234143408340034023477
:10083800013451340934063432344934793441347A
:100848003E347E341134113411347E347F344934CB
:100858004934493436343E34413441344134223405
:100868007F344134413422341C347F344934493490
:10087800493441347F3409340934013401343E3475
:1008880041344134513432347F3408340834083424
:100898007F34003441347F344134003420344034D0
:1008A80041343F3401347F34083414342234413421
:1008B8007F3440344034403440347F34023404348C
:1008C80002347F347F340434083410347F343E34A7
:1008D8004134413441343E347F34093409340934D5
:1008E80006343E344134513421345E347F34093483
:1008F8001934293446344634493449344934313476
:10090800013401347F34013401343F3440344034FD
:1009180040343F341F342034403420341F347F3473
:100928002034183420347F346334143408341434B5
:100938006334033404347834043403346134513474
:10094800493445344334003400347F34413441342D
:1009580002340434083410342034413441347F34B0
:100968000034003404340234013402340434403492
:1009780040344034403440340034013402340434C8
:100988000034203454345434543478347F34483464
:1009980044344434383438344434443444342034CB
:1009A80038344434443448347F3438345434543438
:1009B8005434183408347E34093401340234083489
:1009C8001434543454343C347F34083404340434F8
:1009D8007834003444347D34403400342034403496
:1009E80044343D34003400347F34103428344434E3
:1009F800003441347F34403400347C3404341834B7
:100A0800043478347C340834043404347834383486
:100A180044344434443438347C3414341434143472
:100A2800083408341434143418347C347C340834CE
:100A3800043404340834483454345434543420349A
:100A480004343F344434403420343C34403440345B
:100A580020347C341C342034403420341C343C345E
:100A68004034303440343C3444342834103428344E
:100A780044340C345034503450343C3444346434AA
:100A880054344C344434003408343634413400345B
:100A9800003400347F3400340034003441343634B8
:100AA80008340034083408342A341C340834083430
:100AB8001C342A340834083401302000ED07003093
:100AC800EE3D17306E02703003196D02031C6D2D58
:100AD8006E2D722DA631262685312D2FFB3060060E
:100AE800031D772D782D802DED01EE016108013A67
:100AF800E1009F3195278531503020006006031DA5
:100B0800862D872DFA2DED01EE012830E0026108CF
:100B1800031D8F2D902D6E2D023062020318952D26
:100B2800962D6E2D6208C300C401C335C40D633011
:100B3800C5000030C6004308450786004408463D06
:100B48008700403FCD00413FCE004E08803AC300A9
:100B580080304302031DB22D64304D020318B52DB9
:100B6800B62DBC2D05302000CD070030CE3DC12D5F
:100B780032302000CD070030CE3D6208031DC52D60
:100B8800C62DD72D4E08803AC30080304302031D7E
:100B9800CF2DC9304D02031CD22DD32DE92D2000B5
:100BA800CD01CE01E92D4E08803AC30083304302BF
:100BB800031DE02DE9304D02031CE32DE42DE92D42
:100BC80020006408CE006308CD0020006235633E33
:100BD800860087010030873D62350030873D4D082B
:100BE800C03F4E08C13F9F31952785310230200014
:100BF80062020318002E012E402E21005B08803A65
:100C08002000C30080304302031D0D2E65302100F3
:100C18005A02031C102E112E252F20006C082100CB
:100C28005B06031D1B2E20006B0821005A06031DBE
:100C38001E2E1F2E252F20006235673E8600870155
:100C48000030873D62350030873D21005A08C03F9B
:100C58005B08C13F9831AC208531F801F80A0230B1
:100C6800F900AA30FA00FB0180308D314625853124
:100C780002302000E207252F21005B08803A20007F
:100C8800C30080304302031D4C2E053021005A0258
:100C980003184F2E502E252F01302000E202620348
:100CA800031D572E582E5F2E9831AC2085319F3169
:100CB80095278531252F64082100D100200063087D
:100CC8002100D000200066082100D300200065081C
:100CD8002100D2005108FD005008FC0097315B2725
:100CE80085317D082000CC007C08CB00210053080A
:100CF800FD005208FC0097315B2785317D082000F4
:100D0800CA007C08C900613086000030870046317F
:100D180061308400003085000831403F0002A000A7
:100D28000131413F003BA100A201A11BA2032208FF
:100D3800A3004B084902C3004C084A3BC4004308BF
:100D4800C5004408C6000030C61BFF30C700C800F5
:100D58000C30C535C60DC70DC80D890BAD2E48081A
:100D6800A7004708A6004608A5004508A400943136
:100D7800FD248531200021082100D700200020080B
:100D88002100D60000302000A3000030A20010305F
:100D9800A1000030A00021005608F0005708F1001B
:100DA800890D893B8909F200F30020006708F400E7
:100DB8006808F500890D893B8909F600F7009A3122
:100DC8003E22853173082000A7007208A60071082A
:100DD800A5007008A4009431FD2485312000200866
:100DE8004B022100D400200021084C3B2100D500F3
:100DF800D030F3000030F4000230F5006A30A7313B
:100E080093278531D230F3000030F4000230F5002A
:100E18006830A73193278531D430F3000030F400CF
:100E28000230F5006630A73193278531D630F300BC
:100E38000030F4000230F5006430A7319327853183
:100E48006E2D21005B082000EC0021005A082000CC
:100E5800EB00080020006108BC000130BA00023035
:100E6800BB0021005C0803193A2F3B2F402F0230AA
:100E78002000BA000130BB0020003A08F800053015
:100E8800F900AA30FA00FB0100308D314625873180
:100E980033302000A3000730A40099311D21873189
:100EA80020003A08F8003330F9000030FA003A0818
:100EB800FF3EB100FF3003180030B2003C08310695
:100EC80032040319682F6A2F01306B2F0030FB00A2
:100ED80004308D314625873120003B08F800083062
:100EE800F900AA30FA00FB0100308D314625873120
:100EF80033302000A3000730A40099314B218731FB
:100F080020003B08F8003330F9000030FA003B08B5
:100F1800FF3EB100FF3003180030B2003C08310634
:100F280032040319982F9A2F01309B2F0030FB00B1
:100F380004308D314625873121005C08031DA52F1B
:100F4800A62FBB2F0330F800E530F900A930FA00CE
:100F5800023020003C060319B22FB42F0130B52F00
:100F68000030FB0000308D3146258731CF2F03300C
:100F7800F800E030F900A930FA00023020003C0601
:100F88000319C72FC92F0130CA2F0030FB000030CA
:100F98008D31462587310330F800F230F900A93049
:100FA800FA00033020003C060319DB2FDD2F013047
:100FB800DE2F0030FB0007308D31462587310800D1
:100FC8007108F4007008F3006400F72F0630F2008F
:100FD8003030890BED2FF20BED2F00326400013019
:100FE800F3020030F43B73087404031DFC2FFD2F3B
:040FF800EA2F0800D4
:101000009831AC208831A63114268831F8019C3003
:10101000F900A930FA00FB0100308D3146258831F6
:10102000F801F80AA230F900A930FA00FB010030FB
:101030008D31462588312000E10121004A08200039
:10104000E20021004C082000E40021004B082000B1
:10105000E300E501E6019131922188310800023078
:101060002000C6000330C700B10121004208200063
:10107000B300210041082000B200B40104309D31CA
:10108000832588312000B101B10A210044082000E5
:10109000B300210043082000B200B40104309B31AA
:1010A000EC23883121005C080319572858285D2853
:1010B00003302000C6000230C70021004D03031D8D
:1010C0006228632870280330F800FF30F900A83048
:1010D000FA00FB01FB0A00308D3146258831B0282B
:1010E00020004608F8000530F900AA30FA00FB019C
:1010F00000308D31462588313D302000A300073077
:10110000A40099311D21883120004608F8003D30A7
:10111000F9000030FA00FB0102308D31462588319C
:1011200020004708F8000830F900AA30FA00FB0157
:1011300000308D31462588313D302000A300073036
:10114000A40099314B21883120004708F8003D3038
:10115000F9000030FA00FB0102308D31462588315C
:1011600021004903031DB528B628DA284D030319C9
:10117000BA28BB28DA28DB302000C400A930C5001B
:10118000C8014808B100480844078400450803180E
:10119000013E85000008B200B301093098310020FB
:1011A000883101302000C80704304802031CD928C8
:1011B000DA28C128080001302000EE070030EF3D9A
:1011C00017306F02703003196E02031CE828E928FB
:1011D000ED28A631262688318A296008031DF128CA
:1011E000F228F4282830E300FB306006031DF928BC
:1011F000FA280829EE01EF010130E2070A30620205
:10120000031C032904290529E20189318B21883136
:10121000503020006006031D0E290F298A29EE0197
:10122000EF016308E0020B306302031C182919293F
:101230001B290530E3020830620203182029212906
:1012400063296630BA000030BB0062083A078600A6
:1012500000303B3D87000108BC00BD013129013051
:10126000BD073D08003E8400A0300318013E850004
:1012700000083C0603193D293E29442949303D0216
:10128000031C432944292F290130BD0748303D0262
:10129000031C4B294C294D29BD016630BA00003092
:1012A000BB0062083A07860000303B3D87003D08DE
:1012B000003E8400A0300318013E85000008810034
:1012C00089318B218831083020006206031D69298D
:1012D0006A298329A7316227883171082000E50037
:1012E0007008E4006430F3000030F4000A30F500C8
:1012F0000A30F0006108A63192268831003EA731FD
:1013000093278831E92809306206031D8829892935
:101310008A29E92808002000B901B1016630FC00E3
:101320000030FD0039087C07860000307D3D8700D5
:101330000108B2006208390603199F29A12901306A
:10134000A2290030B3003908023E983100208931CB
:1013500001302000B90708303902031CB029B12937
:101360008D29083062020318B629B7290B2A663086
:10137000FC000030FD0062087C07860000307D3DE7
:1013800087000108B700B901C7290130B90739083A
:10139000003E8400A0300318013E85000008370697
:1013A0000319D329D429DA2949303902031CD92950
:1013B000DA29C529B101B10A3708B200B301B30A6D
:1013C000023098310020893101302000B80001300E
:1013D000B90748303902031CEE29EF29F029B90179
:1013E000B101B10A3908003E8400A0300318013E63
:1013F00085000008B200B3013808023E9831002091
:10140000893101302000B80708303802031C092A4E
:101410000A2AE729162AF801F80A6930F900A830E3
:10142000FA00FB0100308D31462589310330F80088
:10143000CC30F900A930FA00083020006206031908
:10144000222A242A0130252A0030FB0000308D3169
:10145000462589310330F800F230F900A930FA004E
:101460000930200062060319362A382A0130392A49
:101470000030FB0007308D314625893108000030EF
:101480002000B7000030B6000030B5000030B400D6
:101490000030BB000030BA000030B9000030B800A6
:1014A000BD01BC010130BD073D35343E8600013031
:1014B0008700403FAE00413FAF003C35343E8600E0
:1014C000013087002E08C03F2F08C13F2E08B00012
:1014D0002F08B1000030B11BFF30B200B30030085C
:1014E000B4073108B53D3208B63D3308B73D3D3548
:1014F000203E860001308700403FAE00413FAF00F4
:101500003C35203E8600013087002E08C03F2F0862
:10151000C13F2E08B0002F08B1000030B11BFF30D2
:10152000B200B3003008B8073108B93D3208BA3DFF
:101530003308BB3D0130BC0709303C02031CA12A23
:10154000A22A522A01309931A8218A3120003D3542
:10155000343E8600013087007008C03F7108C13FEB
:101560007008AE007108AF000030AF1BFF30B00054
:10157000B1002E08B4072F08B53D3008B63D31083C
:10158000B73D00309931A8218A3120003D35203EF9
:101590008600013087007008C03F7108C13F7008A5
:1015A000AE007108AF000030AF1BFF30B000B100DB
:1015B0002E08B8072F08B93D3008BA3D3108BB3DA9
:1015C0000030A3000030A2000030A1000A30A000CB
:1015D0003708A7003608A6003508A5003408A4007F
:1015E0009431FD248A31200021082100DB002000F5
:1015F00020082100DA0000302000A3000030A20003
:101600000030A1000A30A0003B08A7003A08A6005D
:101610003908A5003808A4009431FD248A3120003F
:1016200021082100D900200020082100D80008004E
:1016300001302000E7070030E83D173068027030C5
:1016400003196702031C252B262B2A2BA6312626DD
:101650008B31F32BFB306006031D2F2B302B3E2BE1
:10166000E701E8010130E10705306102031C392B75
:101670003A2B3B2BE10192317D228B3150302000FF
:101680006006031D442B452BF32BE701E8012830AE
:10169000E0026108031D4D2B4E2B5A2B6603031DE0
:1016A000522B532B552BE601572B0130E60092317C
:1016B0007D228B3120006103031D5F2B602B792B72
:1016C0000530E4070030E53D6508803ABD00813013
:1016D0003D02031D6D2B2D306402031C702B712BFA
:1016E000762B78302000E4000030E50092317D2236
:1016F0008B31023020006106031D7F2B802B992B3C
:101700000530E2070030E33D6308803ABD008030D9
:101710003D02031D8D2BC9306202031C902B912BBF
:10172000962B64302000E2000030E30092317D22ED
:101730008B31033020006106031D9F2BA02BEC2B67
:101740006308803ABD006508803A3D02031DAA2B5C
:1017500064086202031CAD2BAE2BB92B2000640879
:10176000FB3EE200FF30653DE30092317D228B318C
:10177000F32B200066082100C90020006508210025
:10178000C800200064082100C70020006308210071
:10179000C600200062082100C500C530F3000030FB
:1017A000F4000230F5007030A73193278B31C73039
:1017B000F3000030F4000230F5006E30A7319327BB
:1017C0008B31C930F3000030F400F501F50A7330B5
:1017D000A73193278B31262B04306106031DF12B93
:1017E000F22BF32B262B080001302000E5070030F8
:1017F000E63D17306602703003196502031C012CA8
:10180000022C0D2C6308F2006208F100A631B82604
:101810008B31A63126268B31452D0130E4070A3065
:101820006406031D142C152C3A2CE4019F31392732
:101830008B319331F4238B312000B1012100440816
:101840002000B300210043082000B200B4010030A2
:101850009B31EC238B312000B10121004208200094
:10186000B300210041082000B200B40106309D31D0
:1018700083258B31FB3020006006031D402C412C5A
:101880004F2CE501E6010130E10704306102031C41
:101890004A2C4B2C4C2CE10187312E278B315030B8
:1018A00020006006031D552C562CC32CE501E601D3
:1018B0002830E00221005C08031D5F2C602C662CA0
:1018C000200061080319652C662C722C21005C082D
:1018D00003196B2C6C2C7E2C20006103031D712CD2
:1018E000722C7E2C21005D08031D772C782C7B2C1C
:1018F0000130DD007E2C5D357F39DD0021005C0884
:10190000031D832C842C8A2C200061030319892C4D
:101910008A2C962C21005C0803198F2C902CA22C69
:1019200020006108031D952C962CA22C21005E0836
:10193000031D9B2C9C2C9F2C0130DE00A22C5E35BD
:101940007F39DE00023020006106031DA82CA92C7F
:10195000B62C21005C08031DAE2CAF2CB22C01303C
:10196000DC00B32CDC01FF302000E0000330610616
:10197000031DBB2CBC2CBD2C022C87312E278B3198
:10198000933176238B312000BD0121005C08031DBB
:10199000CA2CCB2CD12C200061080319D02CD12CBF
:1019A000DD2C21005C080319D62CD72CFE2C20003E
:1019B0006103031DDC2CDD2CFE2C21003903031DEB
:1019C000E22CE32CED2C5D080319E72CE82CEA2C23
:1019D0000130DD0201302000BD0021003A03031D6B
:1019E000F22CF32CFE2C7F305D020318F82CF92C1E
:1019F000FB2C0130DD0701302000BD0021005C0818
:101A0000031D032D042D0A2D200061030319092D48
:101A10000A2D162D21005C0803190F2D102D372DCE
:101A200020006108031D152D162D372D21003903C7
:101A3000031D1B2D1C2D262D5E080319202D212D85
:101A4000232D0130DE0201302000BD0021003A03C9
:101A5000031D2B2D2C2D372D7F305E020318312DC9
:101A6000322D342D0130DE0701302000BD00200072
:101A70003D0803193C2D3D2D452DE501E60193312F
:101A800076238B3187312E278B3108002000A4006C
:101A90007B0803194C2D4D2D502DFF30AE00512DDC
:101AA000AE017835A70080302406031D582D592D2E
:101AB000892DA9017A08AD007908AC00652D0130A7
:101AC000A9070130AC070030AD3D2C0884002D087B
:101AD00085001200031D6D2D6E2D5F2D0C30F00062
:101AE0002908A63192268D312000A9000230F0008D
:101AF0000030F1008030A00029082002F200F3013C
:101B0000031CF3039E31DE268D3170082000A800EF
:101B1000912D0C30F0002408A63192268D31200042
:101B2000A8002808F2002708993179218D317A0818
:101B30002000AD007908AC000E2E2C0884002D0882
:101B400085000008E03EF000FF3003180030F1008F
:101B50000530F2000030F300983130208D317108EB
:101B60002000A6007008A500AA018030A0008330E4
:101B7000A1002A082007A2000030213DA30022086E
:101B8000250784002308263D85000008B000AF1318
:101B9000B01DCB2DAF1720002F13301DD02D2F17C8
:101BA0002000AF12301DD52DAF1620002F12B01C13
:101BB000DA2D2F162000AF11B01CDF2DAF1520003D
:101BC0002F11301CE42D2F152000AF10301CE92DF3
:101BD000AF1420002F102F082E06AF002F089B31C6
:101BE0007A238D3120002F089B317A238D310130EB
:101BF0002000AA0705302A02031CFF2D002EB52D58
:101C00002E089B317A238D3120002E089B317A23B8
:101C10008D3101302000AC070030AD3D2C08840030
:101C20002D0885001200031D162E172E9D2D280845
:101C3000F2002708013E993179218D317A08200080
:101C4000AD007908AC00952E2C0884002D08850085
:101C50000008E03EF000FF3003180030F1000530CE
:101C6000F2000030F300983130208D3171082000EF
:101C7000A6007008A500AB018030A0008330A10051
:101C80002B082007A2000030213DA30022082507D1
:101C900084002308263D85000008B000AF132F13F1
:101CA000301F532E2F172000AF12301F582EAF16A3
:101CB00020002F12B01E5D2E2F162000AF11B01E77
:101CC000622EAF1520002F11301E672E2F15200019
:101CD000AF10301E6C2EAF1420002F10B01D712ECF
:101CE0002F1420002F082E06AF002F089B317A23D7
:101CF0008D3120002F089B317A238D310130200057
:101D0000AB0705302B02031C862E872E3C2E2E0897
:101D10009B317A238D3120002E089B317A238D311F
:101D200001302000AC070030AD3D2C0884002D08A8
:101D300085001200031D9D2E9E2E242EA6317F2687
:101D40008D3108009F3139278E319331F4238E3144
:101D500021004208803A2000C90080304902031D5A
:101D6000B42E053021004102031CB72EB82ED12E0F
:101D700021004A03031DBD2EBE2ED12E4C0820008B
:101D80006506031DC72E21004B0820006406031DB5
:101D9000CA2ECB2ECE2EA6313A268E312000E4015B
:101DA000E50121004A03031DD62ED72E222F200045
:101DB0006508803AC90021004C08803A2000490299
:101DC000031DE62E21004B08200064020318E92EB3
:101DD000EA2E222F01302000E60764306606031D3C
:101DE000F22EF32E222FE6010130E4070030E53D0C
:101DF00021004C0820006506031D022F21004B081E
:101E000020006406031D052F062F222FA73162270D
:101E10008E3171082000E8007008E7009831AC208E
:101E20008E31F801F80A1430F900AA30FA00FB01EB
:101E300080308D3146258E310030F100F200A63120
:101E4000B8268E3120006508803AC90021004C0870
:101E5000803A20004902031D312F21004B08200049
:101E60006402031C342F352F3B2F21004A03031932
:101E70003A2F3B2FF62F01302000E1070A30610690
:101E8000031D432F442F672FE10121004208803AB0
:101E90002000C90080304902031D512F013021006C
:101EA00041020318542F552F5C2F20006208630451
:101EB00003195B2F5C2F672F210042082000E300ED
:101EC000210041082000E20088312F208E312100BE
:101ED0004903031D6C2F6D2FA52F4D030319712F7F
:101EE000722FA52F4208803A2000C9008030490295
:101EF000031D7D2F013021004102031C802F812F03
:101F0000A52F21004408803A2000C900210048087C
:101F1000803A20004902031D902F21004708430208
:101F2000031C932F942FA52F48302100AC00A9301B
:101F3000AD0002302C0784002D080318013E8500F7
:101F4000013F8A00003F0A008F31FB30200060060D
:101F5000031DAB2FAC2FCE2F21004D03031DB12F3E
:101F6000B22FBE2FCD014F08F2004E08F100A6316E
:101F7000B8268E31A63126268E31CE2F4830AC00C1
:101F8000A930AD0002302C0784002D080318013E53
:101F90008500013F8A00003F0A008F315030200049
:101FA0006006031DD42FD52FFF2F21004D03031DE5
:101FB000DA2FDB2FE42FCD014F08F2004E08F1009D
:101FC000A631B8268E31E82F8A30AC00A930AD009A
:101FD000023021002C0784002D080318013E8500E3
:101FE000013F8A00003F0A008F31FF2F200060036D
:101FF000031DFB2FFC2FFF2FA6313A268E31080040
:1020000000340034533474346134723474347534AD
:102010007034203400340034203420342034203410
:102020002034203420342034003400342034203450
:102030002034203420342034203420340034003440
:1020400020342034203420342034203420342034F0
:102050000034003420342034203420342034203420
:102060002034203400340034203420342034203410
:102070002034203420342034003400342034203400
:1020800020342034203420342034203400340034F0
:1020900020342034203420342034203420342034A0
:1020A00000340034203420342034203420342034D0
:1020B00020342034003400342034203420342034C0
:1020C00020342034203420349934283478340034B7
:1020D000EE340234323400343C340034C83400343A
:1020E0006434003401340134FF34FF34FF34FF34EE
:1020F000FF34FF34FF34FF34FF34FF34FF34FF3448
:10210000FF34FF34FF34FF34FF34FF34FF34FF3437
:10211000FF34FF34FF34FF34FF34FF34FF34FF3427
:10212000FF34FF34FF34FF34FF34FF34FF34FF3417
:10213000FF34FF34FF34FF34FF34FF34FF34FF3407
:10214000FF34FF34FF34FF34FF34FF34FF34FF34F7
:10215000FF34FF34FF34FF34FF34FF34FF34FF34E7
:10216000FF34FF34FF34FF34FF34FF34FF34FF34D7
:10217000FF34FF34FF34FF34FF34FF34FF34FF34C7
:10218000FF34FF34FF34FF34FF34FF34FF34FF34B7
:10219000FF34FF34FF34FF34FF34FF34FF34FF34A7
:1021A000FF34FF34FF34FF34FF34FF34FF34FF3497
:1021B000FF34FF34FF34FF34FF34FF34FF34FF3487
:1021C000FF34FF34FF34FF34FF34FF34FF34FF3477
:1021D000FF34FF34FF34FF34FF34FF34FF34FF3467
:1021E000FF34FF34FF34FF34FF34FF34FF34FF3457
:1021F000FF34FF34FF34FF34FF34FF34FF34FF3447
:102206006934A8345E34A8345334A8344834A83426
:102216003D34A8343234A8347E34A9346C34A9341D
:102226007234A9347834A9348434A9346634A93490
:102236006034A9345A34A9344E34A9345434A934F8
:1022460001302000E4070030E53D03306502E83048
:1022560003196402031C302931293529A6312626A3
:1022660091319129FB306006031D3A293B296E29DD
:10227600E401E50163086202C6006029013020001E
:10228600E2076B296308043EC300003003180130DF
:10229600C4004408803AC50080304502031D552914
:1022A60061084302031858295929412901302000A1
:1022B600E3074129E301E2016B294608003A0319C5
:1022C6004129013A03194529033A031941295D2990
:1022D6009B310E239131503020006006031D742976
:1022E600752991296208C300C401C335C40D43088A
:1022F600660786004408673D8700403F2100AC0022
:10230600413FAD0002302C0784002D080318013E22
:102316008500013F8A00003F0A0091310800200035
:102326006108B5006203031D99299A29AC29F801B1
:10233600EA30F900A930FA0035080319A329A529BE
:102346000130A6290030FB0007308D31462591313A
:10235600BD29F801EE30F900A930FA003508031955
:10236600B529B7290130B8290030FB0007308D3177
:102376004625913120006408F9006308F8003130E1
:10238600FA000430FB009231F8229131F801F80A84
:102396003130F9000030FA00200035030319D42942
:1023A600D6290130D7290030FB0007308D3146256C
:1023B60091310330F800CC30F900A930FA00023030
:1023C600200035060319E829EA290130EB290030F7
:1023D600FB0000308D31462591310330F800F23094
:1023E600F900A930FA000330200035060319FC294C
:1023F600FE290130FF290030FB0007308D314625CC
:10240600913108009A31D92292319E318326923138
:10241600A63152269231A73134279231F430F0009A
:102426000130F1008731E4279231F701F70A78305D
:10243600963116269231F8013430F900A930FA00A7
:10244600FB0180308D3146259231F801F80AEC30D7
:10245600F900A830FA00FB0180308D314625923113
:102466000230F800C630F900A930FA00FB018030CE
:102476008D3146259231DC30F0000530F100873190
:10248600E42792319831AC209231A631262692313A
:102496005330F3000030F4000A30F5000030A73165
:1024A6004A27923120005408F2005308F100A63161
:1024B600B826923121003F0840060319632A642A90
:1024C6006B2A0130BF070130BE078A313F229231A5
:1024D6000A3021003E06031D712A722A5D2ABE01BA
:1024E6009D31D425923198318D20923164005D2A38
:1024F6008031152820006108BC006603031D842A6C
:10250600852A972AF801EA30F900A930FA003C0832
:1025160003198E2A902A0130912A0030FB000730D9
:102526008D3146259231A82AF801EE30F900A930FE
:10253600FA003C080319A02AA22A0130A32A003077
:10254600FB0007308D31462592312000B101B10ADA
:102556006508B3006408B2003C030319B32AB52A20
:102566000130B62A0030B40006309B31EC2392319C
:1025760002302000B1006308B3006208B2000230E6
:102586003C060319C72AC92A0130CA2A0030B400FA
:1025960006309B31EC2392310330F800CC30F90041
:1025A600A930FA00033020003C060319DB2ADD2A95
:1025B6000130DE2A0030FB0000308D314625923195
:1025C6000330F800F230F900A930FA000430200098
:1025D6003C060319EF2AF12A0130F22A0030FB00EB
:1025E60007308D314625923108002000A0010230C7
:1025F6007B020318FF2A002B012B752B7B08FF3E5D
:10260600A1007A082107A20022088600870181011D
:10261600F91F0E2B0F2B162B0130A000F809F90914
:10262600F80A0319F90A0130A1020130A202790859
:10263600803AFC0080307C02031D232B0130780297
:10264600031C262B272B492B2000220886008701F6
:102656000A30F0000030F1007908F3007808F20043
:102666009D31322592317008303E81000A30F000EB
:102676000030F1007908F3007808F2009E31DE267A
:1026860092317108F9007008F8006F2B7B08FE3E46
:10269600FC00FF3003180030FD00200021087C06F6
:1026A6007D04031D572B582B5E2B220886008701BD
:1026B600303081006F2B20080319622B632B6A2BA5
:1026C6002208860087012D308100A0016F2B220889
:1026D600860087012030810020002108031D742B0D
:1026E600752B162B080021005E08F00070187C2B55
:1026F6007F2B22008D15812B22008D11F018842B43
:10270600872B22000C15892B22000C1170198C2B9B
:102716008F2B22000D16912B22000D12F019942BEF
:10272600972B22008C15992B22008C11701A9C2B4A
:102736009F2B22008D16A12B22008D12F01AA42B9E
:10274600A72B22008C16A92B22008C12701BAC2BF7
:10275600AF2B22000C16B12B22000C1221005D08B3
:10276600F0007018B72BBA2B22008E17BC2B220054
:102776008E13F018BF2BC22B22008E15C42B2200FD
:102786008E117019C72BCA2B22000E17CC2B2200D4
:102796000E13F019CF2BD22B22000E15D42B2200AC
:1027A6000E11701AD72BDA2B22008E16DC2B220084
:1027B6008E12F01ADF2BE22B22008E14E42B22005D
:1027C6008E10701BE72BEA2B22000E16EC2B220034
:1027D6000E1221005C0C2200031C0E1003180E14AE
:1027E60008002000AE01AF0121005B08803AFC0022
:1027F60080307C02031D012C64305A02031C042C19
:10280600052C6F2C21005908803AFC005B08803AA1
:102816007C02031D102C5A0858020318132C142C82
:102826006A2CC1308600003087005731C1308400E1
:10283600003085001931403F00022000A000013120
:10284600413F003BA100A201A11BA2032208A30055
:10285600C1308600003087005731C1308400003017
:1028660085001931403F0007F0000131413F003D2E
:10287600F100F201F11BF2037208F3000030F700D9
:102886000030F6000030F5006430F4009A313E2244
:10289600933173082000A7007208A6007108A500EE
:1028A6007008A4009431FD24933120002108AF0064
:1028B6002008AE002F08803AFC0083307C02031DFE
:1028C600662CE8302E02031C692C6A2C6F2CE7302C
:1028D6002000AE000330AF0020002F082100C40006
:1028E60020002E082100C300080001302000E20766
:1028F6000030E33D03306302E83003196202031C33
:10290600852C862C8A2CA63126269431FC2C600335
:10291600031D8E2C8F2CFC2CE201E3016108031DA4
:10292600952C962CC72C0130E1079831AC209431B8
:10293600F8011A30F900A930FA00FB0180308D3118
:1029460046259431F801F80AFE30F900A930FA005C
:10295600FB0180308D31462594310230F8000E306F
:10296600F900AA30FA00FB0180308D3146259431FA
:102976000330F800BA30F900A930FA00FB018030C4
:102986008D3146259431FC2C6103031DCB2CCC2CB8
:10299600862C0130E1079831AC209431F8011130D2
:1029A600F900A930FA00FB0180308D3146259431BB
:1029B600F801F80A0830F900A930FA00FB01803066
:1029C6008D31462594310230F8000B30F900AA30DB
:1029D600FA00FB0180308D31462594310330F80032
:1029E600B430F900A930FA00FB0180308D3146255C
:1029F600943108002000A901A31F022D032D102DDC
:102A0600A009A109A209A309A00A0319A10A031989
:102A1600A20A0319A30A0130A900A71F132D142D1A
:102A2600212DA409A509A609A709A40A0319A50A1F
:102A36000319A60A0319A70A0130A9060030AD003A
:102A46000030AC000030AB000030AA00230822049E
:102A5600210420040319302D312D702D0130A800DA
:102A66003D2D0130A035A10DA20DA30D890B352DED
:102A76000130A807A31F402D412D342D0130AA3562
:102A8600AB0DAC0DAD0D890B422D23082702031D9E
:102A9600562D22082602031D562D21082502031D48
:102AA600562D20082402031C592D5A2D632D20086B
:102AB600A4022108A53B2208A63B2308A73B2A140B
:102AC6000130A336A20CA10CA00C890B642D013099
:102AD600A802031D6F2D702D412D29080319742D91
:102AE600752D802DAA09AB09AC09AD09AA0A0319EF
:102AF600AB0A0319AC0A0319AD0A2D08A3002C086A
:102B0600A2002B08A1002A08A0000800013020001E
:102B1600E1070030E23D03306202E830031961024A
:102B2600031C962D972D9B2DA63126269531152E05
:102B3600FB306006031DA02DA12DD12DE101E20180
:102B460065086302C600C62D01302000E307CE2DBE
:102B56006508033EC300003003180130C400440872
:102B6600803AC50080304502031DBB2D0A30430262
:102B76000318BE2DBF2DA72D01302000E507A72D78
:102B8600E501E301CE2D4608003A0319A72D013AC7
:102B96000319AB2DC32D9E312B26953150302000C5
:102BA6006006031DD72DD82D152E6403031DDC2DBD
:102BB600DD2DFC2D6308031DE12DE22DE82D3C30B3
:102BC6002100AC00A930AD00EF2D6308E1004230D2
:102BD6002100AC00A930AD0002302C0784002D087E
:102BE6000318013E8500013F8A00003F0A00953127
:102BF600152E4730F3000030F4000A30F5000A3095
:102C0600F0006308A63192269531003EA7314A2787
:102C1600953120004808F2004708F100A631B82691
:102C26009531972D0800F80078082100BD00770837
:102C3600BC000D178D1722000D138D130630890B5E
:102C4600222E0032A7317A27963121003D089B318A
:102C56007A23963100309B317A239631AE309B3100
:102C66007A239631D5309B317A23963180309B3149
:102C76007A239631A8309B317A2396313F309B31A7
:102C86007A239631D3309B317A23963100309B31AB
:102C96007A23963140309B317A2396318D309B31A1
:102CA6007A23963114309B317A23963181309B31C9
:102CB6007A239631FF309B317A239631D9309B3176
:102CC6007A239631F1309B317A23963120309B312D
:102CD6007A23963102309B317A23963121309B310B
:102CE6007A23963100309B317A2396317F309B319F
:102CF6007A2396312E309B317A23963121003C037C
:102D0600031D862E872E902EA0309B317A23963176
:102D1600C0309B317A239631982EA1309B317A238D
:102D26009631C8309B317A239631DA309B317A233B
:102D3600963112309B317A239631DB309B317A23E0
:102D4600963140309B317A239631A4309B317A23D9
:102D56009631A6309B317A239631A6317F2696315D
:102D66009831AC209631080001302000E50700308C
:102D7600E63D17306602703003196502031CC42E47
:102D8600C52EC92EA631262696315A2FFB3060064F
:102D9600031DCE2ECF2EDD2EE501E6010130E10723
:102DA60004306102031CD82ED92EDA2EE1019131AE
:102DB60092219631503020006006031DE32EE42E4A
:102DC6005A2FE501E6012830E0026108031DEC2ECA
:102DD600ED2EF92E6203031DF12EF22EF42EE201E2
:102DE600F62E0130E20091319221963120006103E6
:102DF600031DFE2EFF2E2C2F6408803AB60080306D
:102E06003602031D082F64306302031C0B2F0C2FA0
:102E1600122F0A302000E3070030E43D172F05305B
:102E26002000E3070030E43D6408803AB6008330B2
:102E36003602031D202F85306302031C232F242F07
:102E4600292F05302000E3000030E4009131922163
:102E56009631023020006106031D322F332F532F87
:102E660064082100CC00200063082100CB0020006C
:102E760062082100CA00CB30F3000030F4000230B3
:102E8600F5006C30A73193279631CA30F300003035
:102E9600F400F501F50A7230A73193279631C52E55
:102EA60003306106031D582F592F5A2FC52E0800CF
:102EB6007C08F0007D08F100890D893B8909F20044
:102EC600F3000030F7000030F600C330F500503054
:102ED600F4009A313E22973173082000B900720837
:102EE600B8007108B7007008B6000030A3000030C3
:102EF600A2000030A1000230A0003908A70038085F
:102F0600A6003708A5003608A4009431FD249731A1
:102F160020002308BD002208BC002108BB002008B1
:102F2600BA000030C1000030C0000030BF000030E1
:102F3600BE00E92F3D08C1003C08C0003B08BF00A9
:102F46003A08BE004108A3004008A2003F08A100BD
:102F56003E08A0003908A7003808A6003708A500D3
:102F66003608A4009431FD249731200020083E073E
:102F7600AE0021083F3DAF002208403DB0002308C7
:102F8600413DB1003108B5003008B4002F08B30048
:102F96002E08B2000030A3000030A2000030A100CD
:102FA6000230A0003508A7003408A6003308A500A3
:102FB6003208A4009431FD24973120002308BD0077
:102FC6002208BC002108BB002008BA0041083D06C3
:102FD600031DF72F40083C06031DF72F3F083B064D
:102FE600031DF72F3E083A06031DFA2FFB2F9D2FD0
:102FF6003B08FD003A08FC0008002000B400320837
:10300600B500B6013108F8003530F9000030FA0095
:103016003308FB0034088D31462598310800983175
:10302600AC209831A631142698312000E101A73151
:103036006227983171082000E3007008E200E4017D
:10304600E501E6012100DC01DD01DE019331762395
:10305600983187312E2798310800F401F501701C4C
:10306600352836283A287208F4077308F53D0130EA
:10307600F235F30D890B3B280130F136F00C890B44
:10308600402870087104031D49284A28322875080B
:10309600F1007408F0000800A731C527983198316F
:1030A600AC209831F801F80AE230F900A830FA00AD
:1030B600FB01FB0A80308D31462598310B30FD002F
:1030C6002630FC005E30890B6628FC0B6628FD0B5B
:1030D60066286C2808009831AC2098312000E10160
:1030E600E201210051082000E400210050082000E0
:1030F600E300210053082000E600210052082000CA
:10310600E500ED01EE01A631142698319F31952791
:1031160098310800043021002C0784002D0803187C
:10312600013E850012002000D1001200D1040319CF
:103136009D289E28AB28043021002C0784002D08EA
:103146000318013E8500013F8A00003F0A009831BE
:103156000800A6310A269831F601F201760899315F
:1031660079219831F50100309B317A23983101306D
:10317600F50780307502031CC128C228B628013025
:10318600F60708307602031CC928CA28B028A631DB
:103196007F269831A6310F2698310800210038087D
:1031A600FC0002307C06031DD928DA28E528200019
:1031B60062080319DF28E028E328E201FC01E5287C
:1031C6000130E2000230F8007C35483E86000130CE
:1031D6008700403FF900413FFA00FB0180308D3106
:1031E6004625983108000330F800CC30F900A930A4
:1031F600FA00200062080319012903290130042975
:103206000030FB0000308D31462598310330F80040
:10321600F230F900A930FA002000620303191429DC
:103226001629013017290030FB0007308D3146255D
:103236009831080007302000240203182329242986
:1032460025294A299A317122993171082000A60050
:103256007008A5002608F9002508F8002308FA00DA
:103266000530FB009231F822993120002308043EF4
:1032760086008701703081002308053E860087019D
:10328600463081002308063E86008701810108003A
:10329600073020002402031851295229532978297E
:1032A6009A31A522993171082000A6007008A50060
:1032B6002608F9002508F8002308FA000530FB0067
:1032C6009231F822993120002308043E86008701B6
:1032D6006E3081002308053E860087014830810054
:1032E6002308063E8600870181010800F400A73105
:1032F6007A27993121003D089B317A239931003094
:103306009B317A2399317408B03E9B317A239931E7
:1033160072080F399B317A2399317208F300043011
:10332600F336890B93297308103E9B317A23993122
:10333600A7317A27993121003D089B317A239931AB
:1033460040309B317A2399310800F9007908F20060
:10335600F20DF20D21001D087206833972069D00DA
:103366000630890BB429003221009D149D18BC2912
:10337600BD29B9291C08F200F3017208F700730889
:10338600F8007808F3007708F2007208F300F201FB
:103396001B087207F5000030733DF600F535F60D93
:1033A600F535F60D7508F0007608F100080098313D
:1033B600AC209931A63114269931F801F630F9007E
:1033C600A930FA00FB0100308D3146259931F8010C
:1033D600F80AFA30F900A930FA00FB0100308D3105
:1033E600462599312000E101FF30E200FF30E3007D
:1033F600E601E401E501A731622799317108200051
:10340600E8007008E7002100C101C201C301C40140
:10341600080001302000E5070030E63D173066025F
:10342600703003196502031C192A1A2A1E2AA631AE
:1034360026269A313D2A80314B209A3101302000D0
:10344600E10732306106031D292A2A2A2E2AE101C4
:103456009831D1209A3120006003031D332A342A83
:10346600352A1A2A053021003806031D3B2A3C2A34
:103476003D2A1A2A08000030FB000030FA0000300E
:10348600F9000030F800701C492A4A2A522A7408AA
:10349600F8077508F93D7608FA3D7708FB3D0130D7
:1034A600F435F50DF60DF70D890B532A0130F33679
:1034B600F20CF10CF00C890B5A2A73087204710491
:1034C6007004031D672A682A462A7B08F3007A08D7
:1034D600F2007908F1007808F0000800F601F7011B
:1034E600F8010130F200780A792AF235890B782A38
:1034F600720821005D050319812A822A982A780814
:10350600F200F301F235F30D0E3072078400283015
:10351600733D80388500003FF400013FF5007608D2
:103526007407F6007708753DF7000130F807073095
:103536007802031C9F2AA02A742A7708F1007608CD
:10354600F0000800F601F701F8010130F200780AF0
:10355600AD2AF235890BAC2A720821005E050319E3
:10356600B52AB62ACC2A7808F200F301F235F30D13
:103576000030720784002830733D80388500003F94
:10358600F400013FF50076087407F6007708753DEC
:10359600F7000130F80707307802031CD32AD42A33
:1035A600A82A7708F1007608F00008007A30210092
:1035B600990022008C018D018E0120001C08FC3927
:1035C60002389C0087309C05FA309B00210091143C
:1035D6000B1720001C158B17C03023008D05220009
:1035E6009113931321008E138E110E130E118E124A
:1035F6008E100E120E108D110C110D128C118D12D3
:103606008C120C12DE01DD01DC016430C5000030D5
:10361600C6009513080020006308FC00FD017D0824
:10362600F8007C082000B100B201B135B20D3108B6
:10363600660786003208673D8700403FB300413F7A
:10364600B4003308840034088500003FF900013FC8
:10365600FA0062087C060319312B332B0130342B18
:103666000030FB0080308D3146259B310130FC0750
:103676000130FD0704307D02031C422B432B122B25
:1036860008009831AC209B31F8012C30F900A930A4
:10369600FA00FB0180308D3146259B31F801F80A8E
:1036A6002330F900A930FA00FB0180308D31462520
:1036B6009B310230F8001130F900AA30FA00FB0104
:1036C60080308D3146259B310330F800C030F9003B
:1036D600A930FA00FB0180308D3146259B31A63199
:1036E60014269B312000E101E201E3010800F0000D
:1036F600F101F01B7F2B802B832B21008D13852B53
:1037060021008D170630890B862B003221000D17FC
:103716000630890B8C2B003221000D130630890BE5
:10372600922B00327035F0000130F107083071023B
:10373600031C9E2B9F2B7C2B21008D170630890B9B
:10374600A22B003221000D170630890BA82B003260
:1037560021000D130630890BAE2B00320800210024
:1037660067082000BA00210068082000BB0021007D
:1037760069082000BC006108303EBA009831AC20D0
:103786009B31F8013A30F9000030FA00FB010030B5
:103796008D3146259B316430F3000030F4000A3049
:1037A600F5000A30F00020006108A63192269B3110
:1037B600003EA7314A279B312000E2012830E30072
:1037C600EE01EF01A63114269B3189318B219B3105
:1037D60008002000B600DF30860000308700373052
:1037E6008400003085000530B50016001A00B50BC0
:1037F600F82B3308803AB50080303502031D052CBE
:1038060064303202031C082C092C1A2C20003308C1
:10381600F9003208F8003830FA000430FB00923123
:10382600F8229B3120003808B7002E30B80020005F
:103836003108F8003730F9000030FA003408FB0090
:1038460036088D3146259B3108009831AC209C31D5
:10385600210064082000B100210065082000B200A4
:10386600210066082000B300F801F80A3130F9009B
:103876000030FA00FB0100308D3146259C31633063
:10388600F3000030F4000A30F5000030A7314A2773
:103896009C312000ED01F801F80A6530F90000308E
:1038A600FA00FB0102308D3146259C312000E201F1
:1038B600EE01EF01A63114269C319831F6209C3199
:1038C60008009831AC209C31A63114269C31F801B1
:1038D600D630F900A930FA00FB0100308D314625BB
:1038E6009C31F801F80A9630F900A930FA00FB017C
:1038F60000308D3146259C310230F800D130F90078
:10390600A930FA00FB0100308D3146259C3120009C
:10391600E101210049082000E600210048082000B6
:10392600E500210047082000E400210046082000A9
:10393600E300210045082000E200E701E80192319A
:103946007D229C31080000302000A3000030A20038
:10395600C330A1005030A000A830AE006130AF00E7
:103966000030B0000030B1007C08F0007D08F100A6
:10397600890D893B8909F200F3007C08F4007D0873
:10398600F500890D893B8909F600F7009A313E2238
:103996009C3170082000AE077108AF3D7208B03D3B
:1039A6007308B13D3108A7003008A6002F08A5000E
:1039B6002E08A4009431FD249C3120002108B30078
:1039C6002008B2003308FD003208FC000800013070
:1039D6002000EE070030EF3D17306F0270300319FC
:1039E6006E02031CF72CF82CFC2CA63126269C31E3
:1039F600312DFB306006031D012D022D102DEE0129
:103A0600EF010130E20702306202031C0B2D0C2D80
:103A16000D2DE2019831F6209C31503020006006D1
:103A2600031D162D172D312DEE01EF016208031D22
:103A36001D2D1E2DF82CA73162279C317108200000
:103A4600E4007008E3006330F3000030F4000A304D
:103A5600F5000030A73193279C31F82C0800F501BA
:103A6600F31F362D372D3E2DF209F309F20A0319FD
:103A7600F30A0130F500F11F412D422D472DF009C3
:103A8600F109F00A0319F10A7008710403194C2DA3
:103A96004D2D742D0130F400572D0130F035F10D08
:103AA600890B512D0130F407F11F5A2D5B2D502D36
:103AB60071087302031D612D70087202031C642DC8
:103AC600652D692D7008F2027108F33B0130F1365D
:103AD600F00C890B6A2D0130F402031D732D742D31
:103AE6005B2D75080319782D792D7E2DF209F309C2
:103AF600F20A0319F30A7308F1007208F0000800CD
:103B06002000B6000130B7003308803AB500803097
:103B16003502031D902D64303202031C932D942D23
:103B2600A62D0A30F0000030F10020003308F30023
:103B36003208F2009E31DE269D3171082000B30066
:103B46007008B200B70120003308F9003208F80007
:103B56003830FA000430FB009231F8229D31200003
:103B660037080319B72DB82DC42D3908B8002030F1
:103B76003806031DBF2DC02DC22D3030B8002E30A3
:103B8600B9005730BB00BC013108F8003830F900E5
:103B96000030FA003408FB0036088D3146259D3189
:103BA600080020000D18D82DD92DEB2DFA30600213
:103BB6000318DE2DDF2DE12D0130E00750306006C1
:103BC600031DE62DE72D042E01302100BB00042E37
:103BD60021003B08031DF02DF12D002E200060086A
:103BE6000319F62DF72D002EFB3060020318FC2D6D
:103BF600FD2D002EFB30E000022E2000E00121000A
:103C0600BB0120008D18082E092E152E013021002B
:103C1600BA0714303A02031C112E122E172E013049
:103C2600BA00172E2100BA0120000D191B2E1C2EDA
:103C3600282E01302100B90714303902031C242E26
:103C4600252E2A2E0130B9002A2E2100B90108009E
:103C560021006A082000B10021006B082000B20094
:103C660021006C082000B300C00165084007B400BD
:103C76003408303EB1004008013EF8003130F9000A
:103C86000030FA006308340603194A2E4C2E013020
:103C96004D2E0030FB0000308D3146259E313530EB
:103CA600F3000030F4000A30F5000A30F00020007E
:103CB6003408A63192269E31003EA7314A279E310E
:103CC6002000BF014008013EF8003730F9000030FF
:103CD600FA00630834060319712E732E0130742E10
:103CE6000030FB0002308D3146259E310130200028
:103CF600C00703304002031C812E822E382E080096
:103D0600C530F3000030F4000230F5007030A73102
:103D16004A279E31C730F3000030F4000230F50028
:103D26006E30A7314A279E31C930F3000030F400C7
:103D3600F501F50A7330A7314A279E31CB30F300DF
:103D46000030F4000230F5006C30A7314A279E316E
:103D5600CA30F3000030F400F501F50A7230A731DD
:103D66004A279E31D030F3000030F4000230F500CF
:103D76006A30A7314A279E31D230F3000030F40072
:103D86000230F5006830A7314A279E31D430F3005F
:103D96000030F4000230F5006630A7314A279E3124
:103DA600D630F3000030F4000230F5006430A7315D
:103DB6004A279E310800F501F11FE22EE32EEA2E76
:103DC600F009F109F00A0319F10A0130F500F31FB1
:103DD600ED2EEE2EF52EF209F309F20A0319F30A77
:103DE6000130F506F601F701700871040319FC2E7F
:103DF600FD2E2A2F0130F400072F0130F035F10D8A
:103E0600890B012F0130F407F11F0A2F0B2F002F0A
:103E16000130F635F70D890B0C2F71087302031D5F
:103E2600162F70087202031C192F1A2F1F2F7008E5
:103E3600F2027108F33B76140130F136F00C890B6F
:103E4600202F0130F402031D292F2A2F0B2F75086E
:103E560003192E2F2F2F342FF609F709F60A031907
:103E6600F70A7708F1007608F0000800C1308600EE
:103E760000308700533100302000A3000030A2003C
:103E86001030A1000030A00021005608F0005708AD
:103E9600F100890D893B8909F200F3005A08F40004
:103EA6005B08F500890D893B8909F600F7009A3110
:103EB6003E229F3173082000A7007208A6007108F1
:103EC600A5007008A4009431FD249F31403F2000D6
:103ED6002007B500413F213DB6003608FD003508F4
:103EE600FC009C31A6249F317D082000B8007C0888
:103EF600B7003808803AB40080303402031D852F9D
:103F0600023037020318882F892F8C2F2000B70123
:103F1600B801200038082100C2002000370821001F
:103F2600C100080021006E082000C20021006D08B3
:103F36002000C1006208313EC100F801A830F90036
:103F4600A930FA00FB0100308D3146259F31F8017A
:103F56004130F9000030FA00FB0109308D31462569
:103F66009F31F801F80A5E30F900A830FA00FB012B
:103F760000308D3146259F310230F800AE30F90011
:103F8600A930FA00FB0100308D3146259F31023001
:103F96002000B1006208BD00BE01BD35BE0D633014
:103FA600BF000030C0003D083F0786003E08403D88
:103FB6008700403FB200413FB30061080319E42F78
:103FC600E62F0130E72F0030B40006309D318325FF
:103FD6009F310330F800F230F900A930FA002000D2
:103FE60061030319F72FF92F0130FA2F0030FB0078
:103FF60007308D3146259F31080020343034313466
:10400600323433343434353436343734383439345E
:1040160061346234633464346534663467346834D6
:1040260069346A346B346C346D346E346F34703486
:104036007134723473347434753476347734783436
:1040460079347A3441344234433444344534463442
:104056004734483449344A344B344C344D344E3466
:104066004F34503451345234533454345534563416
:104076005734583459345A343F3421342F342B347E
:0C4086002D342334253424345F340034FE
:104C1400AE30A631E026A6310800AF30A631E0263A
:104C2400A6310800FF302000E0002100BB0108008D
:104C3400640080010131890B1B2E0034FE00120038
:104C44001E00FE0B212E003490302100AC00A93050
:104C5400AD009931DA21A6310800F0007008230074
:104C64009100951315131514000023001308080070
:104C740020006808F2006708F100A631B826A631C2
:104C84009931DA21A63108002000E301E501E101B0
:104C9400E2019E312B26A631A6311426A631080046
:104CA40021000D1424000D1421008D1424008D14F2
:104CB40021000D1524000D15080001302100B80055
:104CC400B601B501B401DC01DD01DE0193317623C7
:104CD400A63102302100B500080030342E343034BF
:104CE4003034003430343A34003430343A3400341C
:104CF40030343A3400342034003421008D1306302B
:104D0400890B822E003221000D170630890B882E64
:104D1400003221008D170630890B8E2E00320800D8
:104D2400F200F101721C972E982E9A2E7008F1074A
:104D34000310F00D0310F20C7208031DA22EA32E13
:104D4400942E710808009831AC20A631F801B630D1
:104D5400F900A830FA00FB0100308D314625A63158
:104D64002000E401A6314626A6310800F21FBB2E1E
:104D7400BC2EC02E01302100DC00C22E2100DC013B
:104D840072087F39DD0071087F39DE0093317623A4
:104D9400A63108009831AC20A631F801C130F900E1
:104DA400A830FA00FB0100308D314625A6310130D0
:104DB4002000E400A6314626A6310800F200A731FF
:104DC4007A27A63121003D089B317A23A631803011
:104DD4009B317A23A63172089B317A23A631A631FE
:104DE4007F26A63108009831AC20A631A6311426BE
:104DF400A6312000E201E301E401E5010630E1000F
:104E04005430E6000130E7009B310E23A631080040
:104E14009831AC20A731A6311426A7312000E20135
:104E2400E301E401E5010430E1006030E600013013
:104E3400E7009B310E23A731080001302100CD008B
:104E4400A7316227A73171082100CF007008CE0076
:104E54000030F100F200A631B826A731A63126268B
:104E6400A731080021000C1423000C1421008C1419
:104E740023008C1483302200970021009E171E0803
:104E84008F3920389E001E1103309E041D14080023
:104E9400F6007308F7005C2F770886008701760810
:104EA400A6312F26A73181000130F5020130F60723
:104EB4000130F7077508031D602F612F4E2F08007E
:104EC40021005D08F200F3017208F300F2015E08AC
:104ED4007207F5000030733DF6005C080319732F68
:104EE400742F752FF6177608F1007508F000080086
:104EF40021000D170630890B7D2F003221008D17FC
:104F04000630890B832F003221008D130630890B64
:104F1400892F003221000D130630890B8F2F0032A8
:104F24000800F6007308F700A62F770886008701AB
:104F34000108F0007608A731E227A7310130F50215
:104F44000130F6070130F7077508031DAA2FAB2FB0
:104F5400972F08009831AC20A731A6311426A73129
:104F6400F801F630F900A830FA00FB01FB0A8030A2
:104F74008D314625A7312000E201E501E601A63185
:104F84005F26A7310800F301F401003073078400A1
:104F94001030743D803885000008F0007308A73194
:104FA400E227A7310130F3070030F43D01307402E9
:104FB400003003197302031CE02FE12FC72F0800F0
:104FC400F1007108230091007008930095131513E4
:104FD40015150B0D0B0D0139F2008B13553096008E
:104FE400AA30960095149518F82FF92FF52F15115E
:104FF400720C031C8B1303188B1708003234003413
:1050040064340034DC340034C2340134E83403340E
:1050140098340834303411340A34003416340034EB
:105024002F34003464340034DC340034D634013496
:10503400E8340334003401340234043408341034C2
:1050440020344034603470347F340034013402340A
:1050540004340834103420344034603470347F34E1
:105064002034203452346534613464347934203447
:1050740020342034003420344C346F3477342034DA
:105084005034573452342034203400342034203403
:1050940042347234653461346B3420342034203427
:1050A40000342034523475346E346E3469346E34C2
:1050B40067342034203400345234463420346E347F
:1050C4006534653464346534643420340034203405
:1050D400203420342034203420342034203420342C
:1050E40020340034413462346F34753474342034E1
:1050F4002034203420342034003453346534743460
:105104007534703420342034203420342034003476
:10511400433461346C3469346234723461347434C9
:105124006534203400345434653473347434203496
:1051340020342034203420342034003453346C346C
:1051440065346534703420342034203420342034E1
:105154000034543475346E3469346E346734203416
:1051640020342034203400344C346F3461346434BB
:105174002034543475346E3465342034003453345C
:105184006134763465342034543475346E34653483
:1051940020340034423479347034613473347334D9
:1051A40020342034203420340034523465347334B1
:1051B40065347434203441346C346C342034003419
:1051C40052346534733465347434743469346E34ED
:1051D400673400344534583454342D34593441340C
:1051E40046342D34323400342034543475346E341F
:1051F40069346E34673420340034203442347934D2
:10520400703461347334733420340034643465345A
:105214007334693467346E34653464340034483428
:1052240061347234643477346134723465340034F4
:105234004234613473346534643420346F346E34EE
:1052440000346634693472346D34773461347234C2
:1052540065340034433475347234723465346E34D6
:10526400743400344134543455342D3431343034AE
:10527400303400340034003428341C34EA341C3410
:1052840000340034B2341B34DB34083400340034CA
:10529400AC3427340C341A348A34A8346E341834B9
:1052A400603405349534A83412341834F4340B348F
:1052B400A034A83400340834B7341634AB34A834DA
:1052C40064341C3418340B347434A83444341B341C
:1052D40078341434B634A834A534263489341534D7
:1052E400C134A834CC34263489341534D734A834A2
:1052F4004F34183400340034CC34A8341F342734E9
:10530400003400347F34A8340A342734233411346D
:1053140000340034F534263423341134003400349A
:10532400DA341934A2340E3453347434613472349C
:105334007434003453346C3465346534703400345C
:10534400443465346C3461347934003450346F340B
:1053540069346E347434003450346F3477346534C3
:10536400723400344E3437344434443443340034D7
:1053740044344734343453344E3400345334503486
:105384003634503457340034563431342E343034B7
:105394003634003453346134763465340034533451
:1053A40074346F34703400344134753474346F346D
:1053B40000344134553454344F3400343E344C3486
:1053C4002D34433400343E3443342D344C340034CF
:1053D40020344F346E3400344F3466346634003431
:1053E4004534733463340034503457345234003405
:1053F400533457345234003459344134463400342D
:105404004F344B34003443343D3400344C343D3455
:1054140000346234793400346234793400346234D0
:065424007934003400346D
:020000040001F9
:08000000FF3FFF3FFF3FFF3F00
:04000E00FF3FFF3F72
:10E00000000000005300740061007200740075008D
:10E0100070002000000000002000200020002000F0
:10E020002000200020002000000000002000200030
:10E030002000200020002000200020000000000020
:10E0400020002000200020002000200020002000D0
:10E050000000000020002000200020002000200000
:10E0600020002000000000002000200020002000F0
:10E0700020002000200020000000000020002000E0
:10E0800020002000200020002000200000000000D0
:10E090002000200020002000200020002000200080
:10E0A00000000000200020002000200020002000B0
:10E0B00020002000000000002000200020002000A0
:10E0C0002000200020002000990028007800000097
:10E0D000EE000200320000003C000000C80000001A
:08E0E0006400000001000100D2
:00000001FF
